:020000040800F2
:1000000000000220552800080D2800080F280008CD
:100010001128000813280008152800080000000017
:100020000000000000000000000000001728000889
:1000300019280008000000001B2800081D280008DF
:10004000A5280008A5280008A5280008A52800085C
:10005000A5280008A5280008A5280008A52800084C
:10006000A5280008A5280008A5280008A52800083C
:10007000A5280008A5280008A528000821280008B0
:10008000A5280008A5280008A5280008A52800081C
:10009000A5280008A5280008A5280008A52800080C
:1000A000A5280008A5280008A5280008A5280008FC
:1000B000A5280008A5280008A5280008A5280008EC
:1000C000A5280008A5280008A5280008A5280008DC
:1000D000A5280008A5280008A5280008A5280008CC
:1000E000A5280008A5280008A5280008A5280008BC
:1000F000A5280008A5280008A5280008A5280008AC
:10010000A5280008A5280008A5280008A52800089B
:10011000A5280008A5280008A5280008A52800088B
:10012000A5280008A5280008A52800082D280008F3
:10013000A5280008A5280008A5280008A52800086B
:10014000A5280008A5280008A5280008A52800085B
:10015000A5280008A5280008A5280008A52800084B
:10016000A5280008A5280008A5280008A52800083B
:10017000A5280008A5280008A52800080000000000
:08018000A5280008A5280008CD
:1001880010B5054C237833B9044B13B10448AFF3C9
:1001980000800123237010BDDC0500200000000052
:1001A800B429000808B5034B1BB103490348AFF352
:1001B800008008BD00000000E0050020B429000808
:1001C80053B94AB9002908BF00281CBF4FF0FF31B6
:1001D8004FF0FF3000F07AB9ADF1080C6DE904CEAC
:1001E80000F006F8DDF804E0DDE9022304B070470A
:1001F8002DE9F0478C460D460446089E002B51D148
:100208008A4217466DD9B2FA82FEBEF1000F0BD0B2
:10021800CEF1200C01FA0EF520FA0CFC02FA0EF7CA
:100228004CEA050C00FA0EF44FEA174A250CBCFB01
:10023800FAF81FFA87F90AFB18CC45EA0C4508FBBF
:1002480009F3AB420AD9ED1908F1FF3280F0238196
:10025800AB4240F22081A8F102083D44ED1AA4B255
:10026800B5FBFAF00AFB105544EA054400FB09F90E
:10027800A14509D9E41900F1FF3380F00A81A145AD
:1002880040F2078102383C44A4EB090440EA0840E4
:100298000021002E61D024FA0EF40023346073602C
:1002A800BDE8F0878B4207D9002E54D0002186E89C
:1002B80021000846BDE8F087B3FA83F1002940F031
:1002C8008E80AB4202D3824200F2FA80841A65EB38
:1002D80003050120AC46002E3FD086E81010BDE88B
:1002E800F08712B90127B7FBF2F7B7FA87FEBEF11C
:1002F800000F34D1EB1B3A0C1FFA87FC0121B3FB2A
:10030800F2F8250C02FB183345EA03450CFB08F309
:10031800AB4207D9ED1908F1FF3002D2AB4200F227
:10032800D1808046ED1AA3B2B5FBF2F002FB10555E
:1003380043EA05440CFB00FCA44507D9E41900F185
:10034800FF3302D2A44500F2B8801846A4EB0C048F
:1003580040EA08409DE731463046BDE8F087CEF1D7
:10036800200405FA0EF307FA0EF720FA04F83A0CFF
:1003780025FA04F448EA0308B4FBF2F14FEA1845F9
:1003880002FB11441FFA87FC45EA044501FB0CF304
:10039800AB4200FA0EF409D9ED1901F1FF3080F0F3
:1003A8008A80AB4240F2878002393D44EB1A1FFA3B
:1003B80088F5B3FBF2F002FB103345EA034500FB76
:1003C8000CF3AB4207D9ED1900F1FF386FD2AB42FD
:1003D8006DD902383D44EB1A40EA01418FE7C1F17B
:1003E800200722FA07F88B4005FA01F448EA0303CC
:1003F80020FA07FE4FEA134CFD404EEA040EB5FB07
:10040800FCF94FEA1E440CFB19551FFA83F844EA1D
:10041800054509FB08F4AC4202FA01F200FA01FAB8
:1004280008D9ED1809F1FF3043D2AC4241D9A9F1FE
:1004380002091D442D1B1FFA8EFEB5FBFCF00CFBB8
:1004480010554EEA054400FB08F8A04507D9E41802
:1004580000F1FF3529D2A04527D902381C4440EACB
:100468000940A4EB0804A0FB02894C45C6464D464A
:1004780015D312D056B1BAEB0E0364EB050404FA97
:1004880007F7CB401F43CC40376074600021BDE8BC
:10049800F0871846F8E69046E0E6C245EAD2B8EB9F
:1004A800020E69EB03050138E4E72846D7E7404622
:1004B80091E78146BEE7014678E702383C4445E7C4
:1004C800084608E7A8F102083D442BE7704700BF3B
:1004D80038B50E4A0E4B054618784FF47A73B3FBBD
:1004E800F0F31068B0FBF3F000F0AAF8044658B92E
:1004F8000F2D09D8024629464FF0FF3000F05EF86C
:10050800044B20461D6038BD012038BDD8050020A9
:10051800000000200400002008B50B4B1A6842F4C4
:1005280000721A601A6842F480621A601A6842F40B
:1005380080721A60032000F02FF80020FFF7C8FF30
:1005480002F040F9002008BD003C0240034A044B79
:1005580011681B780B441360704700BFA00E002081
:1005680000000020014B1868704700BFA00E002053
:1005780038B50446FFF7F6FF631C1CBF054B1B7814
:10058800054618BFE418FFF7EDFF401B8442FAD870
:1005980038BD00BF00000020074AD36823F4E06399
:1005A8001B041B0C43F0BF63000243F4003300F448
:1005B800E0600343D360704700ED00E0174B30B5AF
:1005C800DC68C4F30224C4F10703251D042B28BFEB
:1005D8000423062D4FF0010505FA03F303F1FF3359
:1005E8008CBF033C00241940A14005FA04F4013CE7
:1005F8002240002842EA01024FEA0212ADBF00F190
:10060800604000F00F00064B00F56140B5BFD2B264
:10061800D2B21A5480F8002330BD00BF00ED00E0CC
:1006280014ED00E0002808DB4209012300F01F0058
:1006380003FA00F0014B43F82200704700E100E0A4
:100648000138B0F1807F0AD2064B074A5860F02182
:1006580082F823100020072298601A607047012052
:10066800704700BF10E000E000ED00E00368DAB278
:1006780023F47F7323F003031821103AB2FBF1F23D
:100688000449032A88BF0433895C8365C165806D8A
:10069800704700BFCC29000870B50446FFF762FF19
:1006A8000546002C71D0002384F8343022680223D8
:1006B80084F83530136823F00103136021680B6850
:1006C800D8073CD40B68324D6268A0691D40A36806
:1006D8001343E26813432269134362691343E269CF
:1006E80003431343226A1343626A042A43EA050355
:1006F80001BF266BE56A35432B430B604B69042A1F
:1007080023F0070343EA02030BD1A26AE56A134305
:100718003DB1F8B9012A2DD001D3022A01D1EA014D
:100728002BD44B612046FFF7A1FFE26D3F23934096
:10073800836000200123606584F8353070BDFFF7C1
:1007480011FF401B0528B9D920236365032084F8CD
:10075800350070BDB0F5005F13D1032AE1D801A0C0
:1007680050F822F0830700082707000883070008CD
:100778007D070008B5F1C07FD3D140236365012010
:10078800E5E7022AF9D9032AC8E7012070BD00BFAE
:100798003F8010F0F7B5002301935A4B856D1F6811
:1007A800C36D2E6808229A40164204460CD0016890
:1007B8000868400708D5086820F004000860AA60A7
:1007C800626D42F00102626501229A40164208D029
:1007D80021684969090641BFAA60626D42F00202B8
:1007E800626504229A40164208D021680968880781
:1007F80041BFAA60626D42F00402626510229A400D
:10080800164210D02368196809070CD5AA601A681F
:10081800500335D51B68190301D4236C00E0A36C81
:100828000BB120469847E16D20228A40164238D005
:1008380023681868C60634D5AA6094F83520052AB6
:100848001A6825D122F016021A605A6922F080022D
:100858005A61226C0AB9A26C1AB11A6822F008020D
:100868001A603F238B40AB60002384F834300123A7
:1008780084F83530236D0BB12046984703B0F0BD9E
:100888001A68D2055EBF1A6822F008021A60C4E727
:10089800500328D51B68190332D4636C0BB120466A
:1008A8009847636D002BE9D0636DDA0719D50523E6
:1008B800226884F83530136823F0010313604FF47D
:1008C8001653B7FBF3F7019B01339F42019302D301
:1008D8001368DB07F7D4002384F83430012384F845
:1008E8003530E36CC7E71A6812F4807208D11968CA
:1008F80021F010011960012384F8342084F8353080
:10090800E36BCBE7D80500202DE9F04F85B00B68E5
:10091800DFF8AC81684ADFF8AC9101930023012429
:10092800019D9C402540AC4240F0B0804C6824F0CA
:10093800100C0CF1FF36012E4FEA430E12D88768CF
:10094800032606FA0EF627EA0607CE6806FA0EF61A
:100958003E4386604768C4F3001627EA05079E40B1
:100968003E4346600326C76806FA0EF6F64307EAD2
:10097800060A8F6807FA0EF747EA0A07BCF1020F62
:10098800C76016D14FEAD30A00EB8A0A03F0070BB7
:10099800DAF820704FEA8B0B4FF00F0C0CFA0BFCB7
:1009A80027EA0C0C0F6907FA0BF747EA0C07CAF895
:1009B800207007683E4004F0030707FA0EFE4EEA6F
:1009C80006060660E60061D54FF0000BCDF80CB0C6
:1009D800D8F84470394E47F48047C8F84470D8F8BE
:1009E800447007F480470397039F23F0030707F138
:1009F800804707F59C3703F0030CD7F808A04FEAA7
:100A08008C0C4FF00F0E0EFA0CFEB0422AEA0E0EB6
:100A180043D006F58066B04241D006F58066B04204
:100A28003FD006F58066B0423DD006F58066B042FC
:100A38003BD048453BD006F50066B04239D006F5B4
:100A48008066B04214BF0826072606FA0CF646EA66
:100A58000E06BE601668EF4314F4803F0CBF3E409C
:100A68002E431660566814F4003F0CBF3E402E43D8
:100A78005660966814F4801F0CBF3E402E43966063
:100A8800D668A40254BF3E402E43D6600133102BD3
:100A98007FF445AF05B0BDE8F08F5E46D5E7012687
:100AA800D3E70226D1E70326CFE70426CDE70526BC
:100AB800CBE70626C9E700BF003C01400000024022
:100AC80000380240001402400AB1816170470904ED
:100AD800FBE700002DE9F341044608B901203FE097
:100AE8000368DD0710D4236898075AD423681A07C7
:100AF80000F19C8023685B0700F1BA80A069002898
:100B080040F01B8100202BE0A44B9A6802F00C02F5
:100B1800042A07D09A6802F00C02082A0AD15B68F6
:100B2800590207D59D4B1B689A03DCD56368002BD7
:100B3800D9D1D3E76368994DB3F5803F13D12B68BA
:100B480043F480332B60FFF70DFD944D06462B6868
:100B58009B03C8D4FFF706FD801B6428F7D9032040
:100B680002B0BDE8F081B3F5A02F04D12B6843F49F
:100B780080232B60E3E72A6822F480322A602A68FF
:100B880022F480222A60002BDDD1FFF7EBFC064619
:100B98002B689F03A7D5FFF7E5FC801B6428F7D9CE
:100BA800DDE77E4B9A6812F00C0F07D09A6802F0C6
:100BB8000C02082A11D15B685E020ED4774B1A68C2
:100BC800950702D5E268012A88D11A68216922F0BE
:100BD800F80242EAC1021A6088E7E268704BB2B1D3
:100BE80001221A60FFF7BEFC6C4D06462B68980779
:100BF80007D52B68226923F0F80343EAC2032B6068
:100C080074E7FFF7AFFC801B0228EFD9A7E71A604B
:100C1800FFF7A8FC614D06462B6899077FF566AF7C
:100C2800FFF7A0FC801B0228F6D998E762695D4BA4
:100C38007AB101221A60FFF795FC584D06466B6F92
:100C48009F073FF557AFFFF78DFC801B0228F6D9A9
:100C580085E71A60FFF786FC504D06466B6F9807CC
:100C68007FF548AFFFF77EFC801B0228F6D976E7B0
:100C78004A4B1A6C12F0805228D101921A6C42F039
:100C880080521A641B6C03F080530193019B012668
:100C9800454D2B68D9051BD5A368404D012B27D19D
:100CA8002B6F43F001032B67FFF75CFC3B4D0746B6
:100CB80041F288382B6F9B0739D5002E3FF41EAFC1
:100CC800364A136C23F08053136417E70026DFE7D6
:100CD8002B6843F480732B60FFF744FC07462B68AE
:100CE800DA05D9D4FFF73EFCC01B0228F7D936E74E
:100CF800052B04D12B6F43F004032B67D0E72A6F31
:100D080022F001022A672A6F22F004022A67002BC8
:100D1800CAD1FFF727FC41F2883807462B6F98079E
:100D2800CBD5FFF71FFCC01B4045F7D917E7FFF7E6
:100D380019FCC01B4045BDD911E7184DAB6803F03D
:100D48000C03082B47D0194E00230228336035D1F5
:100D5800FFF708FC07462B68990129D4226AE36942
:100D68001343626A43EA8213E26A43EA0263A26AAD
:100D78000A4C5208013A43EA02436B60012333608C
:100D8800FFF7F0FB054623689A013FF5BBAEFFF776
:100D9800E9FB401B0228F6D9E1E600BF0038024013
:100DA80000004742800E4742007000406000474202
:100DB800FFF7D8FBC01B0228CDD9D0E6FFF7D2FB3E
:100DC80004462B689B017FF59DAEFFF7CBFB001B0C
:100DD8000228F6D9C3E601283FF4C2AEA868E36941
:100DE80000F480029A427FF479AE226A00F03F0351
:100DF80093427FF473AE626A47F6C073034093422E
:100E08007FF46CAEA26A00F4403393427FF466AE7E
:100E1800E36A00F07060C01A18BF0120A0E600BFA6
:100E2800134908B58B6803F00C03042B03D0082B77
:100E380003D0104808BD104808BD4A684B68496887
:100E480013F4800314BF0C480A48C1F3881118BF73
:100E5800002302F03F02A1FB0001FFF7B1F9044BA8
:100E68005B68C3F3014301335B00B0FBF3F008BDDB
:100E7800003802400024F40000127A002DE9F04105
:100E88000D46044610B90120BDE8F081444B1A68AC
:100E980002F00F028A4229D321688F072ED4C8078F
:100EA80041D43F4B1A6802F00F02954267D322687B
:100EB80051076DD4130707D53A4A2169936823F47B
:100EC800604343EAC1039360FFF7AAFF354B364AF4
:100ED8009B68C3F30313D35CD840344B1860344B7E
:100EE8001868FFF7F5FA0020BDE8F081CAB21A7059
:100EF8001B6803F00F039942C5D1CDE7294B11F0C8
:100F0800040F1EBF9A6842F4E0529A600E0742BF6F
:100F18009A6842F460429A609A68A06822F0F002E7
:100F280002439A60BBE762681E4B012A1DD11B6809
:100F380013F4003FA7D01B4EB36823F003031343F9
:100F4800B360FFF70FFB41F288380746B368626861
:100F580003F00C03B3EB820FA3D0FFF703FBC01B16
:100F68004045F3D90320BDE8F081911E01291B6893
:100F780002D813F0007FDDE713F0020FDAE7EAB2D8
:100F88001A701B6803F00F039D427FF47CAF8EE755
:100F98000449E0688B6823F4E05303438B6089E7D6
:100FA800003C024000380240B84F0008D805002035
:100FB80004000020F8B504460E4615461F46216871
:100FC8008A6836EA020301D00020F8BD6B1CF7D00E
:100FD800FFF7C8FAC01B8542F1D823685A6822F087
:100FE800E0025A606268B2F5827F0AD1A268B2F55F
:100FF800004F02D0B2F5806F03D11A6822F0400288
:101008001A60A26AB2F5005F07D11A6822F400528A
:101018001A601A6842F400521A60012384F85130A9
:10102800002384F850300320F8BD000073B5134640
:10103800134A144E15684268B5FBF6F64FF47A75F4
:101048007543B2F5827F044601950DD10A46802189
:10105800FFF7B0FF10B9002002B070BD636D43F018
:10106800200363650320F7E7019B002BF3D0019B66
:10107800013B019323689B681B06F5D4EBE700BF8F
:10108800D805002000366E0110B50446002836D079
:101098000023836290F8513003F0FF021BB980F8F7
:1010A800502001F0EBFA2168A068A269022384F8B5
:1010B80051300B6823F040030B6063680343E0681A
:1010C80003432069034360690343E0690343206ADB
:1010D8000343A06A034302F4007003430B60120C3D
:1010E800636A02F004021A434A60CB6923F400637E
:1010F800CB6100200123606584F8513010BD0120C8
:1011080010BD2DE9F3411E4690F85030012B0446DE
:101118000D46904600F09B80012380F85030FFF781
:1011280021FA074694F85100C0B2012840F08D809A
:10113800002D5DD0B8F1000F5AD0032384F8513048
:101148000020A3686065A063A4F83680A087E087C4
:101158006064206420682563B3F5004F08BF036806
:10116800A4F8348004BF43F48043036003685B063B
:101178005EBF036843F040030360E368B3F5006FA4
:1011880063683ED113B1B8F1010F07D135F8023BBE
:10119800C3602563E38E013B9BB2E386E38E9BB27B
:1011A800A3B93A4631462046FFF740FF002849D107
:1011B800A36833B901932368DA6801929B680193A5
:1011C800019B606D003018BF012011E02268936810
:1011D800980705D5236B33F8021BD1602363D9E741
:1011E800FFF7C0F9C01BB042D8D3711CD6D003207A
:1011F800012384F85130002384F8503002B0BDE850
:10120800F08113B1B8F1010F08D12B780373236B68
:1012180001332363E38E013B9BB2E386E38E9BB2EB
:10122800002BBED023689A68920703D5226B1278E8
:101238001A73ECE7FFF796F9C01B8642EED8731CC9
:10124800ECD0D4E720236365B2E70220D0E7022080
:10125800D4E72DE9F74F0B44DFB2531CDBB290F80B
:10126800868000933B4605460C469146DDF830A043
:1012780000F0F6FB30B101264FF0000BBC4204D160
:1012880085F8868003B0BDE8F08F9AF800301E42DA
:1012980014D085F88680CDF800B001234A4621464F
:1012A800284600F066FB760016F0FF0604F10104FC
:1012B800E4B204BF0AF1010A0126DFE795F88520A8
:1012C800002AF0D1B8FA88F35B0985F886300092D5
:1012D800E3E72DE9F3479DF82850DDF82C80154405
:1012E8001F46EDB20B440095DBB282468946144690
:1012F80000F0B6FB20B1FE1DC6F3C406AC4202D115
:1013080002B0BDE8F087CDF8008022463B4649464A
:1013180050460134FFF79DFFB044E4B2EEE72DE9F3
:10132800F743036890F83C9090F83D7093F811806B
:10133800054600262B681B7CB1B2D80010FB01F1D2
:10134800A86BF4B289B201443A1901340091D2B2BF
:1013580000212846E4B200F04AFEA14504D901362E
:10136800BB19DBB29845E5D803B0BDE8F083036844
:101378001A7C90F83C30806BDB005A43002101F066
:10138800CDBA10B50446FFF7CAFF2046BDE81040A5
:1013980000F059BE10B5436B80F83D1004461B6839
:1013A8009847636B20465B68BDE81040184710B546
:1013B80090F8873004460BB1FFF7D9FF204600218B
:1013C800BDE81040FFF7E6BF38B50446FFF7A7FFB2
:1013D80094F83D5094F83C1023680D445B7CEDB2C2
:1013E800AB4204D8204600F02EFE002038BD94F809
:1013F800873013B12046FFF7BAFF20462946FFF78A
:10140800C9FF012038BD10B50446FFF7D0FF2046BC
:10141800FFF7DAFF01460028F9D12046BDE8104061
:10142800FFF7B8BF0823037000487047F80500208D
:1014380030B585B00D46009309491346094A04465C
:1014480000F02AFE0DF10F00FFF7ECFF9DF80F20CA
:1014580000950146044B204600F0ECFB05B030BD7A
:101468002D1F0008891D0008991A00084218435CBE
:10147800507800EB032080B27047012B07D003D3CC
:10148800022B06D0401A00E01044C0B2704708444E
:10149800FBE7801AF9E7012B07D003D3022B06D00C
:1014A800104400E00844C0B27047801AFBE7401AB5
:1014B800F9E70020704738B50B7803704B78437014
:1014C8008B788370CB78C3700B7903714B79437138
:1014D8008B798371CB79C3710B7A03724B7A437220
:1014E8008B7A8372CB7AC3720B7B03734B7B437308
:1014F8008B7B8373CB7BC3730D460B7C03740446D1
:1015080011212846FFF7B2FF132160822846FFF712
:10151800ADFF1521A0822846FFF7A8FFE08238BD5D
:1015280070B5847A066862183378D2B2072A43FA0B
:1015380004F506D8EBB282720120884001381840C1
:1015480070BD731C03607378C4F10804E4B2A3404F
:101558002B43083ADBB2D2B2EDE738B5002300F1ED
:101568005805044680F86230816590F86C1028466A
:10157800FFF7D6FF94F86D1084F860002846FFF74F
:10158800CFFF94F8863084F86430B3FA83F35B09AC
:1015980084F8610084F8653038BD10B5FFF7C0FFE6
:1015A8004C1EE4B20123A340C01A40B210BD2DE97D
:1015B800F04F87B090F85E8090F85F70059204460F
:1015C8000E4694F8605094F8669094F85C00A5EB89
:1015D8000805EDB2AE42334628BF2B4602934FFAB8
:1015E80088FA94F85D3004934FFA87FB4B465A46C5
:1015F8005146FFF750FF4B4603905A465146049810
:10160800FFF73BFF059B02469BB194F8643084F8D2
:101618008630CDF80090029B0399204600F0A9F986
:10162800AE420DD3761B0137F6B2FFB24FF0000879
:10163800C7E794F86330002BF2D194F86530E6E7F9
:10164800464484F85E6084F85FB007B0BDE8F08F68
:101658002DE9F04F044685B000F15809FFF77DFFEA
:1016680094F9613094F86E1002934846FFF795FF9D
:1016780094F86F1083464846FFF78FFF94F8701070
:1016880080464846FFF789FF94F960600390002E72
:1016980057DD9DF8085094F866A094F85C00A844BB
:1016A800C8F100084FFA88F8534642465946FFF7F2
:1016B800F2FE534684F85C000746424694F85D0003
:1016C8005946FFF7DAFE84F85D00BAF1030F5AD8DD
:1016D800DFE80AF0023B4450BB190544DBB2E9B22B
:1016E800009102463946204600F0BAF948B3002373
:1016F80084F85E3084F85F3094F86A104846FFF743
:101708000FFF94F86B1006464846FFF709FF054699
:10171800002231462046FFF74AFF2946204601228B
:10172800FFF745FF01214846FFF7FAFE0028EFD1F1
:1017380094F95F30029A9342DEDB94F8643084F8BF
:101748008630039805B0BDE8F08FC5F101057A1918
:1017580006440137FBB2F1B2D7B2C1E7C6F10106C0
:10176800C5F10105411CBA1905440137FBB2C9B2DC
:10177800E8B2F1E7C6F10106411CEB190644DBB2F9
:10178800C9B2F0B2ACE701463B46A9E7036DFF29B1
:1017980070B503F117030D4612D8602909D9B0F8BE
:1017A8007C201344587848B31A78AA4206D1981C6A
:1017B80070BD4029F6D9B0F87A20F2E70344F1E782
:1017C800B0F87E401C44264600213046FFF74EFE06
:1017D800022104443046FFF749FE854206F104061B
:1017E800F2D82378607850EA032306D09D4201D1CD
:1017F800E01C70BDA3781C44F3E7184670BDF8B52B
:101808001F4690F8663004460E461546032B07D847
:10181800DFE803F002151A1E436D98470544EDB240
:1018280084F85C6084F85D5039462046FFF7AEFFC7
:1018380020B101462046FFF70BFFC0B2F8BD436D4B
:101848009847361AF6B2EBE7436D98472D1AE6E744
:10185800436D98470644F5E72DE9F0471E460746CD
:101868000C46154600F00EFA013E4FF0000A4FF6FE
:10187800FF784FF6FE797B6816F8011F38469847BF
:10188800404503461BD04845F5D02A4621463846F0
:10189800FFF7B5FF97F86630032B05D8DFE803F0AC
:1018A80002080B0D0444E4B250445FFA80FAE2E700
:1018B8000544EDB2F8E7241AF5E72D1AF9E7504682
:1018C800BDE8F08710B4034C44605DF8044BFFF7A3
:1018D800C3BF00BF7D1C0008036D10B533B390F87B
:1018E800813090F9754090F9761080F8824080F840
:1018F8008310DBB1012B0CD190F977309C42B8BF33
:1019080080F8823090F9783099420FDD80F8833082
:1019180010BD90F9742090F9723013449C42B8BFFE
:1019280080F882309142C8BF80F8832010BD000043
:10193800014B4365704700BFBB140008026D8A4223
:1019480010B5044608D021656830FFF7B4FD20467D
:10195800BDE81040FFF7C0BF10BD70B490F840401C
:101968009DF80C600396121B046BD2B2A44670BC9F
:10197800604770B490F880409DF80C50002C3AD025
:10198800002B38D0012B04D9022D2BD10131C91AD3
:10199800C9B215F0010530D190F8474094422AD8D1
:1019A80090F84840944226D90B44DBB28B4290F819
:1019B800456090F846401CD28C4219D9631EDBB2B0
:1019C8009E4218D2B14238BF31469C4294BFC1EB07
:1019D8000404C1EB0304E3B2446B0395A468A44672
:1019E80070BC6047032D02BF0132D21AD2B2D0E7D1
:1019F80031468C42E4D870BC704790F845408C4220
:101A0800F9D890F846408C42F5D91344DBB293429A
:101A180090F8476090F8484010D294420DD9631E60
:101A2800DBB29E42E7D2B24238BF32469C4294BFF4
:101A3800C2EB0404C2EB0304CDE732469442DAD980
:101A4800EFE78A4206D2834208D89A4294BF002020
:101A5800012070478342F8D8002070470120704762
:101A680070B504460D461E4690F848109DF8103093
:101A780090F84700FFF7E5FF48B133462A4694F847
:101A8800461094F84500BDE87040FFF7DABF70BD16
:101A9800F0B590F886509DF8147002F007060124FE
:101AA800B440012DE4B217D8254617D002F0F80E3D
:101AB800026892F810C0826B0CFB0E1111447FB9BA
:101AC800013BDBB201330B440A782A43624001F838
:101AD800012B9942F8D1F0BD0025E7E70024E5E79E
:101AE8000A7801362A436240013B16F007060A705D
:101AF800DBB20CD190F83E20114490F88620012AE0
:101B08000AD80BD001242546002BE9D1F0BD6D0081
:101B18006400EDB2E4B2F7E70124F5E71546F3E710
:101B280070B590F83C40016890F83D50E30080F8AB
:101B38003F300A7C1F2A28BF1F22EB00DBB2D200ED
:101B480080F8403080F83E204A7C80F841306619A1
:101B58009642C4BF541BE4B203EBC40380F842307E
:101B6800F02380F843308B8AF02B98BF80F84330FD
:101B7800CB8A80F8443070BD10B49DF804400194BD
:101B88005DF8044BFFF7E9BE37B590F84C5090F874
:101B98004A3090F84B2090F8491000950446FFF71A
:101BA8005FFF18B984F8800003B030BD012394F8B2
:101BB800452084F8803094F849309A4238BF84F838
:101BC800453094F8462094F84A309A4288BF84F801
:101BD800463094F8472094F84B309A4238BF84F83E
:101BE800473094F8482094F84C309A4288BF84F8DB
:101BF8004830D9E7002280F8452090F83E2080F848
:101C0800462090F8412080F8472090F8422080F83C
:101C18004820FFF7B9BFFFF783BF002280F84920AB
:101C280080F84B20436BFF2280F84A2080F84C2034
:101C38005B68184770B5049E03630025012380F88C
:101C48003C2080F83D5080F8635080F8855080F83B
:101C5800863080F8873004468163336805654663BB
:101C680098472046FFF7D9FF2046FFF761FE84F822
:101C7800665070BD19B10A2901D088B270474FF675
:101C8800FF707047002380F82730704710B404694C
:101C98000A46A446002320215DF8044B604710B48F
:101CA80004691346A4460A465DF8044B17216047A9
:101CB80007B502AA02F8011D0121FFF7F0FF03B0E2
:101CC8005DF804FB10B4C4680A46A4460023152135
:101CD8005DF8044B604710B4C4680A46A446002364
:101CE80016215DF8044B604710B4C4681346A44637
:101CF8000A465DF8044B1721604710B4C4680023F6
:101D0800A4461A4618215DF8044B604710B4C4680D
:101D18000023A4461A4619215DF8044B604773B5A1
:101D280005460C462178172919D003D815290DD254
:101D380002B070BD19291CD9FE29F9D162788DF835
:101D480007202921284600F087F906E062788DF8F7
:101D58000720EE6800232846B0470234E2E763789C
:101D68008DF807300DF1070201212846FFF7BCFF67
:101D7800F3E70023EE681A4628460134B047D1E756
:101D88002DE9F0411546A1F1140204460E46984685
:101D9800052A1DD8DFE802F013030E1013130021E3
:101DA8002046FFF773FF29462046FFF781FF0120F1
:101DB800BDE8F0810121F3E70121FFF767FF2769FB
:101DC80043462A4631462046BC46BDE8F0416047B6
:101DD8000020BDE8F08100002DE9F04F0E2985B004
:101DE8000446154698460ED00F291AD00B2940F004
:101DF800918032B94849FFF792FF012005B0BDE84C
:101E0800F08F4649F7E7FFF778FFC1212046FFF733
:101E180059FF29462046FFF75EFF2046FFF776FF69
:101E2800EBE7FFF76AFF98F8067098F8053094F822
:101E38002260DFF8ECA0FF00FFB27521204606EB18
:101E48004306FFF73FFF39462046FFF744FFF91DD9
:101E5800C9B22046FFF73FFF06F0FF0698F804B026
:101E6800D8F800200BF1FF33DBB208210A2011FB60
:101E78000303D31802F102090293374615212046BD
:101E8800FFF720FF39462046FFF725FF791CC9B226
:101E98002046FFF720FF5C212046FFF713FF4A4644
:101EA80000230AEB0301039112F802EC12F8011C5B
:101EB8000191002101981EF0010F0CBF4FF0000C9A
:101EC8004FF0F00CC007039848BF4CF00F0C00F817
:101ED80021C001980131400808294FEA5E0E01909F
:101EE800E8D10133042B02F10202DAD15246202153
:101EF8002046FFF7F9FE029B09F1080902374B4516
:101F0800FFB2BBD1013D06EB4B0615F0FF05F6B25B
:101F1800A4D182E7002071E7514F0008564F00080E
:101F2800F80D00200A2970B5044608D00D290DD0F7
:101F380009291AD10F4900F025F8012070BD00F0D9
:101F480026F80D492046FFF7EAFEF6E73AB90B49AD
:101F5800FFF7E5FE23689B7C84F82230EDE708490B
:101F6800FFF7DDFE2368DB7CF6E7BDE87040FFF78E
:101F780033BF00BF5C4F0008FE4E0008EC4E00085F
:101F8800F54E000801608B7C80F82230704738B528
:101F9800002304461A4645692821A84700231A4603
:101FA800E56814212046A847204601224B2100F06D
:101FB80053F8236820461A79292100F04DF8204665
:101FC80000224B2100F048F8236820461A7929217D
:101FD80000F042F8204601224B2100F03DF823682A
:101FE80020465A792921BDE8384000F035B813B5A4
:101FF8008DF8043002AB8DF80620049A8DF8051090
:1020080043F8082D846801220F21A04702B010BDB3
:1020180010B484680023A4461A4609215DF8044BCD
:10202800604710B484680023A4461A460A215DF864
:10203800044B604710B484680A46A44600230B2169
:102048005DF8044B604710B484680023A4461A4620
:1020580010215DF8044B604710B444690023A4467E
:102068005DF8044B60470020704700000023094AD0
:10207800036080F8233080F8263080F82730FF236B
:102088008260C2600261426180F8243080F82930A1
:10209800704700BF6F200008F8B5069D17461E461A
:1020A800FFF7E4FFC760066145618160BDE8F8405D
:1020B800FFF7AEBF13B5144B002400941A6B42F41B
:1020C80080021A631A6B02F480020092009A01944B
:1020D8001A6B42F400121A631B6B03F400132246B6
:1020E800214601930F20019BFEF768FA0F20FEF7A7
:1020F80099FA224621463B20FEF760FA3B20FEF77C
:1021080091FA02B010BD00BF003802402DE9F04F2F
:102118008FB01422002109A800F000FC00247C4B99
:1021280003941A6BDFF8F4917A4FDFF8F481DFF843
:10213800F4B1DFF8F4A142F010021A631A6B02F04E
:1021480010020392039A04941A6B42F004021A6371
:102158001A6B02F004020492049A05941A6B42F076
:1021680080021A631A6B02F080020592059A06949F
:102178001A6B42F001021A631A6B02F0010206920E
:10218800069A07941A6B42F002021A631A6B02F05D
:1021980002020792079A08941A6B42F008021A631F
:1021A8001B6B03F008030893224648460821089B46
:1021B800FEF78AFC012211463846FEF785FC2246C6
:1021C80040465021FEF780FC224638461021FEF793
:1021D8007BFC224658464FF21001FEF775FC01259C
:1021E800082609A9484609960A950B940C94FEF707
:1021F8008BFB09A9384609950A950B940C94FEF7B0
:1022080083FB0522099609A9022638460D920192F8
:102218000A960B940C94FEF777FB3F4B0A9309A997
:10222800404609950B94FEF76FFB502309A94046D9
:1022380009930A950B960C94FEF766FB102309A9DF
:10224800384609930A950B960C94FEF75DFB042318
:1022580009A95046099300930A940B94FEF754FB7E
:102268004FF48061019A0991504609A90D920A9686
:102278000B940C94FEF748FB4FF2100209A958463C
:1022880009920A950B940C94FEF73EFB4FF4A45266
:10229800099209A9062238460D920A960B940C94C5
:1022A800FEF732FB4FF4007209A9404609920A94DE
:1022B8000B94FEF729FB4FF4E052099209A90A2270
:1022C80040460D920A960B940C94FEF71DFB2022B3
:1022D80009A9584609920A940B94FEF715FB4FF486
:1022E8001072009B099209A9122250460A920D9376
:1022F8000B950C94FEF708FB074B099609A948466D
:102308000A930B94FEF700FB0FB0BDE8F08F00BFF7
:10231800003802400008024000001210001002407D
:1023280000000240000C024000040240292908B5C0
:1023380010460CD003D8282908D0012008BD4A2906
:1023480008D04B29F9D11021054805E00120FEF7F6
:102358000FF9F2E703484021FEF7B6FBEDE700BFAF
:102368000008024000000240143908B518460C293C
:102378001FD8DFE801F00C1E1E07131A1E1E1E1EB2
:102388001E1E0E00014664230B48FEF7BAFE01200C
:1023980008BD40210948FEF797FBF8E70122102104
:1023A8000648FEF791FB00BFF1E700BF00221021AD
:1023B800F0E7002008BD00BFA40E00200000024086
:1023C80030B595B03022002108A800F0A7FA002106
:1023D800142203A800F0A2FA00241D4B01941A6CE1
:1023E80042F080521A641B6C03F080530193019BE6
:1023F800184B02941A6842F480421A601B6803F46E
:1024080080430293029B012308934FF4803309937E
:102418004FF480030F93082310934FF4A8730225F9
:10242800119308A8072313930E951295FEF752FBF4
:102438000F2303934FF4A053069305214FF48053C1
:1024480003A8049505940793FEF718FD15B030BD51
:10245800003802400070004013B50446FEF787FFBD
:102468001B4B0193302300930022F32320460821BD
:10247800FEF72FFF20461749FFF760FA164B3C225C
:1024880064212046FFF71EFA2046FEF77AFF4FF434
:10249800FA70FEF76DF8114B3C2264212046FFF7D5
:1024A80011FA2046FEF76DFF4FF4FA70FEF760F858
:1024B8000B4B3C2264212046FFF704FA2046FEF726
:1024C80060FF4FF4FA70FEF753F8002002B010BD19
:1024D80008000020D4290008744F00087F4F000826
:1024E8008C4F0008F0B585B0FEF716F8FFF768FFC7
:1024F800FFF70CFEFFF7DEFD00F07AF800F09CF81D
:102508006420FEF735F8304B304A31493148314CB8
:10251800314E324FFEF78CFF2E48FFF782FD2D48D3
:10252800FEF771FF2B480021FFF784FD20460125A7
:10253800FFF792FF2A4A536983F480535361204678
:10254800FEF715FF31462046FFF7F8F93B460A2209
:102558000C212046FFF7B6F9224B1E220C212046FB
:10256800FFF7B0F9204B32220C212046FFF7AAF9D9
:102578000A2201A9284600F0CFF90A220346C821F9
:102588002046FFF79FF90A2201A9284600F0C4F95E
:102598001E220346C8212046FFF794F90A2201A902
:1025A800284600F0B9F932220346C8212046FFF731
:1025B80089F92046FEF7E5FE132D02D80135ADB2A4
:1025C800B8E70025B6E700BF3523000871230008E7
:1025D800E04E0008180E0020D42900089B4F000880
:1025E800000C0240A74F0008B04F000870470000D9
:1025F8000F48104A08B54FF4004C4FF4827380E836
:102608000C1000234FF40072C360036143618261C0
:1026180003623822436283620A23C261C362FEF7FF
:1026280033FD18B1BDE80840FFF7E0BF08BD00BFA3
:10263800FC0E00200030014008B50E480E4B4FF448
:10264800827E4FF4007280E8084000238360C360F4
:1026580003614361826103623022436283620A2319
:10266800C261C362FEF710FD18B1BDE80840FFF76C
:10267800BDBF08BDA40E0020003800402DE9F0437E
:1026880014228BB0064600210DEB020000F046F93B
:102698003368434A93423CD1424B4348434C00255C
:1026A80001955A6C42F480525A645A6C02F4805272
:1026B8000192019A02951A6B42F001021A631B6B90
:1026C80003F001030293029BA023059302230693C0
:1026D8000323089305A905230993FEF715F934493F
:1026E800E56040234FF0C06284E80E004FF4806339
:1026F80023616561A561E561256265622046FDF794
:10270800CBFF08B1FFF772FFB464A6630BB0BDE856
:10271800F083284A9342F9D1224B27480025039594
:102728001A6C42F480421A641A6C02F480420392D2
:10273800039A04951A6B42F002021A631B6B03F0AA
:102748000203022404934FF400574FF003094FF09B
:10275800050805A9049B069407940597CDF82090D1
:10276800CDF82480FEF7D0F84FF4004305A91248AD
:10277800059306940795114CCDF82090CDF8248048
:10278800FEF7C2F80E4BE56084E828004023A360FA
:102798004FF4806323614FF400636361A761AAE784
:1027A800003001400038024000000240B40F002011
:1027B800586402400038004000040240540F0020D2
:1027C8007060024007B50E4B002100915A6C42F42C
:1027D80080425A645A6C02F480420092009A019135
:1027E8001A6C42F080521A641B6C03F080530193F8
:1027F8000720019BFDF7D0FE03B05DF804FB00BF86
:10280800003802407047FEE7FEE7FEE7FEE7704744
:1028180070477047FDF79ABE0148FDF7BBBF00BF80
:10282800540F00200148FDF7B5BF00BFB40F0020CA
:10283800054BD3F8882042F47002C3F888204FF083
:1028480000629A60704700BF00ED00E0DFF834D006
:10285800002103E00C4B5B58435004310B480C4BF0
:1028680042189A42F6D30B4A02E0002342F8043B8E
:10287800094B9A42F9D3FFF7DBFF00F011F8FFF795
:1028880031FE7047000002200050000800000020C0
:10289800DC050020DC05002014100020FEE7000005
:1028A80070B50D4E0D4CA41BA4100025A54209D1EE
:1028B8000B4E0C4C00F07AF8A41BA4100025A5427E
:1028C80005D170BD56F8253098470135EEE756F822
:1028D800253098470135F2E7F84F0008F84F00080F
:1028E800F84F0008FC4F0008931E222B10B50C4629
:1028F80004D900230B701C46204610BD0A2A09D1B2
:10290800002807DA2D230B7040420121214400F0F2
:102918000DF8F1E70021F9E7FFF7E6BF02440346A7
:10292800934200D1704703F8011BF9E7F0B51E4C3C
:102938008BB003460F466D4604F1200E206861688F
:102948002E4603C6083474453546F7D121793171CE
:10295800911E2068306022294FF0000104D9397097
:102968000F4638460BB0F0BD781E0646B3FBF2F5AD
:102978000DF1280E02FB153373444C1C13F8283C48
:1029880006F8013F2B4665B93D557A18CC1AA34283
:10299800E7DA4478157800F8015F013302F8014955
:1029A800F4E72146E2E700BFC84F0008F8B500BFCA
:1029B800F8BC08BC9E467047F8B500BFF8BC08BC18
:0429C8009E46704770
:1029CC000006101600061016BE00030205050305CE
:1029DC00061219FEFA0BFD0BFE01E404870DC8204C
:1029EC00060030920021096215927850B2612208DB
:1029FC0083F496485C0223154711A24BC2244CA2C7
:102A0C00614AC2241AA6244CC22403241AA7F1A199
:102A1C000B074549A66448B2211CC4214B86245A95
:102A2C001265103300251D6C11B612436508A5A262
:102A3C0094A44A144B991C296124859194654A18D5
:102A4C004A00261D6C11B61B7240922559CA911D65
:102A5C0019A2299A226DC8C469C806699024002756
:102A6C000781F48E1802280DA4D1958B2229F22D02
:102A7C00D3C200290DA4D19508332D933C45520D9A
:102A8C002A0AA5D09AAA5496A6082B0CE730A28B3A
:102A9C006BC390C535002C08A2D491B828002D0723
:102AAC0044709638082E06621492382F0C641196D6
:102ABC006BCA4A5929CB0030146711A2DA14DB9087
:102ACC000DD9900DD9900D99629B00310B6515A213
:102ADC005286CC3F0D01320E6711A2192269D054D7
:102AEC00A3B7E10333146711A2192269D054511B07
:102AFC006275C8866819220034126711A2146F8996
:102B0C009648911429C310AAE21035136711A21923
:102B1C0096418A2B93B2AA433644CB1001361567E3
:102B2C0011A21A2269C8865479D0866CC806491934
:102B3C002200370E6711A2F831C9545135AA36005C
:102B4C0038156711A219A2433664C3920D51326C29
:102B5C00433644870439156711A21A1269D0866C62
:102B6C00C806E5A20ED9104943043A08E21492387B
:102B7C000D033B0922D591380D8B023C09E730A29D
:102B8C000EA7F3393D096770A238E4C0213E0AE76D
:102B9C0030A2889F8E31003F0F66119E19126988F2
:102BAC0044CD98834E00401D6D11BA1CD671D226AF
:102BBC00C5A40C91654824694824C5653129A38EA8
:102BCC0064C30941176A11AED4111D48E4448ED276
:102BDC004CCCC4614BA554D9860042166911AA3855
:102BEC0064264DD224DB3044A2222AA2A20D8708EF
:102BFC0043176A11AE1B946454E41DD8111DD111F6
:102C0C001D9293511B240044186B11B23888E2A416
:102C1C004AB2222BB2222BB2A24AE2320C1A004543
:102C2C00166911AA78111535912A523888522855EF
:102C3C00D4441C0E0246166911AA78111535912A36
:102C4C005238885228853A200F2900471A6B11B246
:102C5C001B946894E44407121DD2217118624995A3
:102C6C00B67188120048196B11B218B22151255552
:102C7C005225551A4EAAA44AAAA42A433604490B33
:102C8C0064159E1812C9BF0C014A0E6711A61B428F
:102C9C00D517499194E8064B1A6B11B218A2211260
:102CAC00432D95622507065959A551DBC465880645
:102CBC00014C166911AA18621DD0011DD0011DD03E
:102CCC00013551137138084D226D11BA18D22159A2
:102CDC00A7754AB4444AB4444AB4448A94488A9482
:102CEC00488A9448CA2C9334044E1B6B11B25897E3
:102CFC00351AC228D9A2488B32A9B644E110A55383
:102D0C00ACCC09004F1A6B11B21BC46D52151D18B7
:102D1C007260C8812107861C5054691B070D501620
:102D2C006911AA3848DA222AA2A22DC3A6033AA016
:102D3C0003F290025121CBB1B11BC46D52151D1879
:102D4C007260C881210786645324453A84830E49F6
:102D5C00F192030B0052166B11B23888DA266AA274
:102D6C00661C564DD4449BA80CDA0253166911AA62
:102D7C001A926453D4444D86789887F9100EC92062
:102D8C000154156A11AEF8246D6EA18EE8888EE898
:102D9C00888EE8C0900155176B11B218C2458EE4AD
:102DAC00488EE4488EE4488EE44C4C070D56176A66
:102DBC0011AE18B2458DD44C0BB5504B9558899526
:102DCC001CD0111157216D11BA18922159342DD2E2
:102DDC00B448D332255142255142255142255152F6
:102DEC004DD6644D03581B6B11B218A42119353103
:102DFC00957240C9811D48742052434D5C86681001
:102E0C0059186A11AE18B245CDB4504B9558C9013A
:102E1C001DD1111DD18121035A0F6811A678080FFD
:102E2C00D9EABA0DE1E1105B0AA4D19538F99F8675
:102E3C00005C0E66119E48E3344EE3344EE3005DB5
:102E4C000AA4D1951822FFD3305E0EE790A28BD343
:102E5C0031C914294B34015F0727D09D3804600811
:102E6C0064149BD0C400610FE810A61A3249D60630
:102E7C004553A4CB0062176911AAD8011DD0011DBE
:102E8C0050B6C9A8888AA868523244006310E7106B
:102E9C00A21A2269C886544C246948006415691129
:102EAC00AADD011DD0016D91A44554444594A46D37
:102EBC0019650FE810A61A32491187774093060559
:102ECC00660E66119A9A146F83247A1B220067147B
:102EDC0067B1A15506451B326550E2611A86545400
:102EEC00060568176911AAD8011DD0011D50B6C975
:102EFC002669922669CA900C01690A44119691D4EC
:102F0C00C997216A0DA5A995B3039BDF8644590087
:102F1C006B106811A6983D2D92451B424593946900
:102F2C006C0964119698FC97216D14EE10BE58A68E
:102F3C006D9A6C26CDA49934CB900CC9106E11E906
:102F4C0010AA58B6C92669922669CA900C016F114D
:102F5C00E810A61A32491187700815491B22007017
:102F6C001349B1A958B6C9A8888AA84C964D07E44C
:102F7C002105711549B1A51A92485A444554444942
:102F8C00DA161DD0017908720BE7109E582E56C721
:102F9C002103730FE6109E19866C088770C8862172
:102FAC0001740F46119A4A436D9044A7448A160047
:102FBC007510E910AA98264DD2244DD224695B06CF
:102FCC007610E80C9E1892458BB44C099554D6009B
:102FDC007717ED0CB218922159342DD2B44C499478
:102FEC005049945493350D780FE810A69816491B48
:102FFC005275C832651A791348AD9D1892458BB439
:10300C004C0995549643255C017A0BE6109E386466
:10301C00BE0D43007B0DA5D1999332B76AA8195305
:10302C00017C07611DA278107D0EA5D1995043CD6E
:10303C009866995BA4017E094790A239240B00A0E5
:10304C000600309200A10962B595B825C341A213C0
:10305C0027F1A1CD864819A441C9942859A4210B64
:10306C0001A3126811A61B23AFC328CBE9A80C83BC
:10307C00322400A4120851A688A464982CE2102AC9
:10308C0092342C9114A5176A11AE18B245CDB450D8
:10309C004B95584987591E661D183200A608611DAC
:1030AC00A218A241A717A6D19D9A142552C4218912
:1030BC0006699092211CA4218A2600A80845149F19
:1030CC00508644A9196B11B29C352D07A268484A49
:1030DC005224C5925489A63A90994700AA0BE590C0
:1030EC009A18A525711D04AB0AA730A2527C533443
:1030FC0045AC088750A238C40DAD0744709638080B
:10310C00AE1B6B11B29C352D07A26488922C8AB42D
:10311C004D4BB224B1443990994700AF0725149F09
:10312C001804B00A84F49A5122295100B10EE730E8
:10313C00A28BB361C8E21C1B8600B20BC5AC9659BE
:10314C00224D320D02B30BC5AC965922E3A42C00D0
:10315C00B40864149B52940CB51549B1A918924942
:10316C009334499334493A244B8EE8800CB61A694F
:10317C0011AA191E12655094415106451A1251118B
:10318C00155111156D1802B7074294961802B8081C
:10319C0063B495C98600B909C4B09651269721BA73
:1031AC000DE5909A5994211912651E04BB0BA7309A
:1031BC00A2503445537C02BC1A6B11B211B34DD4DE
:1031CC00524995D26152A35149C424D294614A15F3
:1031DC0000BD186B11B211B34DD4524995D261593F
:1031EC00934813B55033668300BE1B6C0DB219B3F4
:1031FC00C8AAE58022464ABC4872B42A899A44A2DD
:10320C00326CA902BF0F66B19D12ED60A819A52101
:10321C00528604C01BEA11AED2211DCB893AA203FF
:10322C00899CC8519A8999386CA9942ADB10C11BC6
:10323C00EA11AED6011DC8A93AA203899CC8519ABD
:10324C008999386CA9942ADB10C21BEA11AECD9176
:10325C0039CB493AA203899CC8519A8999386CA9EF
:10326C00942ADB10C31BCA11AE5BC264A7E9880E9B
:10327C0024722247692666E2B0A552AA6C4300C4A8
:10328C001ACA11AE324A3A494774209113394A335B
:10329C003113872D9552651B02C51CEA11AED481E2
:1032AC00280774A28EE840222772946662260E5B71
:1032BC002AA5CA3604C61E6F0DBE1C0E6A22AA8928
:1032CC001A46523192E26C9087290DA5463549C5B4
:1032DC00411B0EC71BCAB1AD1B946454E41DD8111D
:1032EC001DD1111D9293511B7420C7726003C81B12
:1032FC00E911AAD3111DCAC1E1222A6A2255A47070
:10330C0010A550AAA889381C04C919E911AA36E7D6
:10331C00F070111535912A523888522855D4441C16
:10332C000E02CA1BE911AACD8135CBB1E1222A6A62
:10333C002255A47010A550AAA889381C04CB1AC910
:10334C0011AAB2493A365C44454DA48A140EA21413
:10335C004A153511878300CC0DE4159ED0C47048F6
:10336C0024FF3204CD0FE5159E93A41C1922CD3FEA
:10337C000D0900CE0FE5159ECA962C1D22CD3F0DD2
:10338C000900CF0FC6119E90864807864CF46F43F8
:10339C0002D0186B11B23888E2A44AB2220F43A8AB
:1033AC00C88AACA892B80C8306D11ECB11B25CD2E1
:1033BC006427ACCB1A0D61946C51A44599545BA253
:1033CC007088D22956E604D21FEB11B2D3311DCC32
:1033DC008983B84DAAA203430E0C3930E4C0900384
:1033EC008A2A6DE3A001D320EB11B24774444772D3
:1033FC00E2206E93AAE8C09003430E0C3930E480AF
:10340C00A24ADB386800D420EB11B2CDA11DC872E2
:10341C00DA206E93AAE8C09003430E0C3930E48096
:10342C00A24ADB386800D51ECB11B25CD264A70D62
:10343C00E236A98A0E0C3930E4C09003430E28AA58
:10344C00B48D8306D61ECB11B2935449270DE236A8
:10345C00A98A0E0C3930E4C09003430E28AAB48D0F
:10346C008306D70FE830A21015491B5275C82445A6
:10347C0014D81C6B11B21BA4649B54454D86301A96
:10348C00B26C88C221491555DA9668D000D91CEB6C
:10349C0011B2D4311DCC0943B8C8911CC9911CC9B7
:1034AC00911CC9919C89E9A001DA1DEB11B207743A
:1034BC00444772D2102E72244772244772244772EA
:1034CC002467623A6800DB1DEB11B2CDA11DC872F6
:1034DC00C2102E72244772244772244772246762EA
:1034EC003A6800DC1BCB11B2935449878770912347
:1034FC003992233992233992233913D34103DD1E98
:10350C00EA11AE0774400772C2902D6AA6855AAABA
:10351C00C44A0EE8888EE8880E0C1900DE16691174
:10352C00AA18621D3844DA222AA2A22DC3A603F2DD
:10353C009002DF176811A61BB24CD1142D52342DFA
:10354C00D2144DD1146D501600E0136811A6D2019F
:10355C001DC9D12193646D503445BA0CE112681128
:10356C00A654D59C326492AC0D8AA6489701E212FF
:10357C006811A68B474547874C92B541D114E93267
:10358C00E3124811A652B24487874C92B541D1142C
:10359C00E932E4124811A6B1293A3A6492AC0D8A88
:1035AC00A6489701E5126811A653A35487874C923D
:1035BC00B541D114E932E614ED10BA3A64D2248B39
:1035CC00D2F090C9DAA60CD1A000E71347B1A11A2A
:1035DC002269C886544C24690873209C00E814683E
:1035EC0011A6D2011DC9D1219314717807346950E9
:1035FC0000E9136811A654D59C326492220EEF8018
:10360C00260D0A00EA136811A68B474547874C52D2
:10361C00C4E11DD0A44101EB134811A6B1293A3ADB
:10362C006492220EEF80260D0A00EC0B641196D0EA
:10363C00C470F26508ED0C64119652941C987C19B8
:10364C0002EE0C651196CA16EBE6D39000EF0D4511
:10365C001196508644DD7C1A1200F0156811A6D024
:10366C00B471C83271902CE2100EA122694304F19E
:10367C00154911AA53C24447976DB2499AA4499A65
:10368C0032244300F2156811A6D2011DC9D1219331
:10369C00147108875091B42102F3146811A654D503
:1036AC009C326492220EE1102A92364400F4146883
:1036BC0011A68B474547874C52C4211C4245D286E4
:1036CC0008F5144811A652B24487874C52C4211CE9
:1036DC004245D28608F6144811A6B1293A3A6492AA
:1036EC00220EE1102A92364400F70DE830A29375B1
:1036FC0070187450D600F81428F1A5CE864C59A435
:10370C006448A2218914491BB218F9166911AAD26E
:10371C00111DCAD12119124DD2244DD224695B0638
:10372C00FA156911AA94E59C322443A2499AA4493A
:10373C009A246DCB00FB166911AACC8155D1C121FD
:10374C0019124DD2244DD224695B06FC154911AADD
:10375C0052444507876448344993344993A46D19FE
:10376C00FD15C8AD9DB5E6E8902C5AA4654AA8A4F1
:10377C00B21C2AE10AFE19C9B1A9D8011DD0011D3C
:10378C0050B6C9A8888AA84C964D07E42105FF17A6
:10379C00A8AD9D523445878664D1222D5342259580
:1037AC00E5500957000000000801640929FFFF01DA
:1037BC00001AAA11AE1B74928EE8402227729466EE
:1037CC0062260E5B2AA5CA36040101122811A61A1C
:1037DC007470C824591B144D912E0301021CEA115C
:1037EC00AEAB2AF24ED3111D48E4448ED24CCCC45D
:1037FC00614BA554D986000103146811A6CA324541
:10380C00DCD12193646D503445BA0C01041CCAB14F
:10381C00ADD4111D48E4448ED24CCCC4614BA5549C
:10382C00D986344772680301051348B1A51A324989
:10383C00D6064553A4CB18E7C00401061CEA11AE0A
:10384C00D6011DC88983928C8ABC033BA2233AA261
:10385C004372326A83040107146711A215C51C1D3B
:10386C002269C886544C2469480001081CEA11AE30
:10387C00CD9159D12983928C8ABC033BA2233AA2C5
:10388C004372326A83040109156711A24B3745C78D
:10389C0086481AB2211513491A1200010A1BCA11C3
:1038AC00AED4119D3628C9A8C83BB0233AA2233AFE
:1038BC002427A3364800010B134711A253757088B7
:1038CC00A4211B523191A42101010C1CEA11AE530D
:1038DC00E41DC96983928C8ABC033BA2233AA243A0
:1038EC0072326A8304010D146711A2B1AD393A44E6
:1038FC00D2900DA99848D29000010E1FEB11B25333
:10390C0074608772D23088E2A44AB2222BB2222B86
:10391C00B2A24AE2320C1A00010F196D11BADD6421
:10392C004DD664315AB4485A4555544559DA8165D7
:10393C00040110196B11B23888E2A44AB2220F4369
:10394C00A8C88AACA892B80C83060111166911AAF2
:10395C00DD0175C8016D91A44554444594A46D19BD
:10396C0001121AA911AA1A7470B8888A9A481529D2
:10397C001C4429942A6A220E07010113132811A64C
:10398C001A7470C824451CDE014D1A140001141C55
:10399C00E911AACA4245DDD1E1222A6A2255A47056
:1039AC0010A550AAA889381C040115156811A6CABF
:1039BC003245DCD12193147178073469500001161B
:1039CC001AC911AAD4011D1D2EA2A22652450A07FE
:1039DC00510AA58A9A88C3410117134811A69375F9
:1039EC0078C824451CDE014D1A140001181BC9B1FE
:1039FC00A978111535912A523888522855D4441C6F
:103A0C000E620EE4C80601191348B1A51A32491109
:103A1C00877740930635CE8109011A1CE911AA5209
:103A2C00D41DC8E1E1222A6A2255A47010A550AA1F
:103A3C00A889381C04011B146811A652C439878745
:103A4C004C52C4E11DD0A44101011C20EB11B2CD9C
:103A5C00A11D5074DAA044A324273A90E8900E8953
:103A6C00C3104BAAB48D439400011D19E7B1A14BAF
:103A7C003745879541D1864C1994789886211595B0
:103A8C004101011E1FEB11B22B2B3AB01307251A63
:103A9C002539D181448774481C865852A56D1CA2C7
:103AAC0004011F1AE7B1A1C92245DB09CAA068436A
:103ABC00A60C4A3C4CC3908ACAA00001201ECB1114
:103ACC00B2D4219D3A28D128C9890E243AA443E2C4
:103ADC0030C4922A6DE3102500012118C7B1A153FF
:103AEC0075823228DA902983120FD330A4A232289F
:103AFC00000122222B52B11B946894E44407121D3E
:103B0C00D2217118624995B67188729A0EE9908E1D
:103B1C00E5500A01231927B2A14C63D54E50064536
:103B2C001B326550E2611A865454060501241FEBC2
:103B3C0011B2CDA11D5074C2900D892AA9922AA947
:103B4C00D27052255552255519B22101251CE91167
:103B5C00AACA8155D1E11DD0011DD001659B6C9283
:103B6C00266992A60CC91001261B6B11B218B22142
:103B7C00512555190E8A2A0D275552255552952136
:103B8C001B020127176911AAD80179887540D9261B
:103B9C009BA4499AA42943320401280EC5159E7191
:103BAC001E22CD3F0D090001290C45119671DE7CBA
:103BBC001A1200012A0EA5159E18D421D2FCD390FE
:103BCC0000012B0B250D9618E4CDA721012C10E537
:103BDC00159EC816651E22CD3F0D0900012D0E65E0
:103BEC000D96C8166507369F8600012E0DC4B59D2F
:103BFC001812C9BF0C516D012F0DA4B19591D4C9E8
:103C0C009721AA0D01300DC4159E91D42191FCCBA6
:103C1C001001310AE41096987C190201321F6D15BF
:103C2C00C218D221D1014907241D907440D20149F8
:103C3C0007244DB249B66819B20D013318A8B1A9C1
:103C4C00D1144D47A6455334455334451B2659537F
:103C5C00C405013413E711A64C3745C78650F5450A
:103C6C00522425BA0101350FC6A9950B27454746A5
:103C7C007F314D000136232B52B118A22112432D56
:103C8C0095622507065959A551DBC46588069DA484
:103C9C00433AA4633994020137172852A5983D2D55
:103CAC0092451B424593946907653B108700013888
:103CBC0010E810A69116C9A20DA1A249CA34013967
:103CCC001AE911AA94E59C32C43AA0033AA0033A2B
:103CDC00A0036AA226E27010013A0EE5119693A495
:103CEC001CD9FCA72101013B1F2952A918621DD028
:103CFC00011DD0011DD0013551137138E8B00EE80B
:103D0C00808EE44008013C0E24529598FC97219536
:103D1C006C5104013D1B6D11BA187240D1113B62FC
:103D2C0087121D89745007D5544D45713802013ED8
:103D3C00126811A6D8144DD11431D122D9EB10022E
:103D4C00013F196D11BE18724C077550077550471D
:103D5C00EC88355553511C8E0001400F6811AA9800
:103D6C007D533445B60E21000141166911AA186223
:103D7C001DD0011D98E51D5013351187830001429C
:103D8C000C641196989C86C9CB10014320EB11B2A0
:103D9C00D6111DC969EBB2464318255B146951262F
:103DAC00D596281CA2748A9539010144156911AA6B
:103DBC0095E59CB06C934DD2244DD29421190201FF
:103DCC0045232B52B15897351AC228D9A2488B32A9
:103DDC00A9B644E110A553ACCC394D877448C772D1
:103DEC00280501461AA951A958B6C926699226690F
:103DFC00CA900C39AC033AA023391002014721EBCD
:103E0C0011B25374608772D2BAACD11046C9164540
:103E1C005A9449B5250A87289D62654E00014816BB
:103E2C006911AA52D41DC8E1659B6C92266992A6B1
:103E3C000CC9100149196C15BAD0311DD3C11C8B9A
:103E4C00967952355553355513876408014A20CB62
:103E5C00B1B15897351AC228D9A2488B32A9B644A9
:103E6C00E110A553ACAC3A242B3A3001014B154868
:103E7C00B1A958A649D1144DD1146D98644D1117A0
:103E8C0000014C1EAB11B21B74DA206E93AAE8C071
:103E9C009003430E0C3930E480A24ADB38680001F1
:103EAC004D142811A61A7470C824451CC221542420
:103EBC006D8800014E20EB11B22B2B3AB013077119
:103ECC009B544507861C187260C88121071455DA6B
:103EDC00C64103014F166811A6CA3245DCD12193A5
:103EEC00147108875091B42102015021EB11B29446
:103EFC004449CD72DA206E93AAE8C09003430E0CAD
:103F0C003930E480A24ADB3868000151166811A6EA
:103F1C00B2485296A3432629E2100EA1226943040B
:103F2C0001521F7011C61B1E926D54547596A259E6
:103F3C00CAE44193A54C962AAA9A6CA3363C040178
:103F4C00531AEE10BE1AA22193864811C5211C0EDD
:103F5C00A10E4843260DD1A00001541DEB11B2D681
:103F6C00111DC969C3206A9BA8899A7158355113D0
:103F7C006DA232680B0001550F67119E15C51C5BB5
:103F8C002E56C7210301561F2B52B13888DA266AE8
:103F9C00A2661C564DD4449BA80CDA4ED2211DD2DD
:103FAC00B11C8A0101570FA7519D582E56C72147A6
:103FBC009DD31001581DEB11B25274608772DA3028
:103FCC0088DA266AA2661C564DD4449BA80CDA02E9
:103FDC0001590F67119EB1AD39B65CAC8E43060129
:103FEC005A1AE911AA95E59C3424C9A6A8899A0CF9
:103FFC00F1300FF3211C924102015B1366119ED428
:10400C00B41C1B866C088770C8862101015C1CE9F6
:10401C0011AACC8155D1E1214936454DD46488870C
:10402C0079980FE1900C1200015D1366119E0B271D
:10403C0045070ED9100EE1900D4302015E1AC9B16D
:10404C00A91A926453D4444D86789887F9100EC9F6
:10405C0020E750BC01015F1246B19D19866C0887A0
:10406C0070C886218BB3090160156715AAB1AD39EB
:10407C003824DBA02543940DDA3224000161146648
:10408C00119E50A431C786211BC2211CB26148006D
:10409C0001621BCAB1ADF8246D6EA18EE8888EE862
:1040AC00888EE8C090233996031B00016312A6B1D9
:1040BC00994A436D9044A7448AC6385B0001641B3F
:1040CC00EA11AE53E41DC9099FA4CD2DD4111DD105
:1040DC00111DD1111D1832000165176911AA07A411
:1040EC00500A157598221DD0011D9042291D010101
:1040FC0066176A11AEF8246D6EA10E0C39A0233A26
:10410C00A2233A30640001671246119A4A436D901B
:10411C00447188A4448A160001681CCB11B254E285
:10412C0044A70CE122477224477224477224477239
:10413C0026A683060169154911AA53C24447A7490B
:10414C00933449933449DA9601016A1BAB11B21BC3
:10415C0074C2102E7224477224477224477224674B
:10416C00623A6800016B132911AA1A74709A3449C7
:10417C0093344993A46D19016C1DEB11B22B2B3A9E
:10418C00B053867091233992233992233992233973
:10419C0013D34103016D156911AACA4245DDD169DA
:1041AC00D2244DD2244D92B665016E1EEB11B2D4C1
:1041BC0091284774D2102E722447722447722447D8
:1041CC00722467623A6800016F156911AA93A358AB
:1041DC0087A749933449933449DA960101701EEB51
:1041EC0011B2934449CD72CA102E722447722447DF
:1041FC00722447722467623A68000171146911AA2B
:10420C00F25647A749933449933449DA960101721F
:10421C001DCBB1B118C2458EE4488EE4488EE448FB
:10422C008EE44C4C071DC9A11C1B0101731549B12F
:10423C00A998264DD2244DD224695BC61CC8910D79
:10424C00017428ED11BACEC11D5274DA900CC9A2BA
:10425C006991A6459A962989122A89122A89122AC5
:10426C0089926AB2266B1A0001751E6D0DB2CEC111
:10427C001D5274DA900CC9A26991A6654AA2844AAF
:10428C00A2A49AAC690001761EEA11AECC9159D168
:10429C00E1215BD44C0BB55489951CD0111DD11167
:1042AC001D183200017718C8AD9D8B4745C7866431
:1042BC00D1222D53422595E5500957000178154917
:1042CC0011AE534445C78668114325D6011D90870E
:1042DC0008017913E811A6B5E6E870080FD9EABA17
:1042EC000DE1E110017A0F66119ED4B41C1A86CC34
:1042FC00B76108017B13C811A69375703884876C5D
:10430C0075DD86F07008017C0E46119E12756418DE
:10431C0032DF8621017D116811A631CE393A1C5548
:10432C00B7441B0E01017E1066119E50A431878686
:10433C0021F36D18020186186A11AE1A3471897551
:10434C004847744447766056C425193400018919CE
:10435C006B11B23888E2A44AB2220F43A8C88AACC7
:10436C00A892B80C8306018E186911AA781095547E
:10437C0089223112073152A248491551190E019266
:10438C0018C9ADA55E135107D461D5011D907540B8
:10439C0007744054D21901970E64159E1812C96502
:1043AC0048249721019A0D64119698BC0C89E4322B
:1043BC0004019D20CDA9B15AB7351CC2CA16465A64
:1043CC00984961B684E1108AA32ACAA18ED8A11D8E
:1043DC0002019F196B11B21BC46D52151D1872E0AE
:1043EC007760C8014595B671D00001A01C6C11B264
:1043FC001B24651B1475D8814107141D507440D1C2
:10440C000149D5AE830801A113EA10A61A22455220
:10441C008670189571B20E210001A7176911AA496F
:10442C00864C5B52255587685806513E84D2A004B1
:10443C0001A80FE6109E18944C5B8664D392410140
:10444C00AE19CAB1ADF8246D6EA18EE8888EE888DD
:10445C008EE8888EE888790201AF1A6C11B218C206
:10446C002191177991934496E44CCEE44C0EC57887
:10447C00100101B015EA10AA9806451B126D4834BC
:10448C0025D126695C160001B5126811A678080FB3
:10449C00D92A0EA1BA0DE1E11001B60EE6109E3834
:1044AC0064A621D2B4610801BB116711A21922695B
:1044BC00D05475B889B6E10301BC146711A21996E2
:1044CC00418A2B93B2AA433644CB100101C0086138
:1044DC001DA2781001C21067F1A18BDB8621CB865F
:1044EC00218BDB0001C30A6215927850B26101CDB9
:1044FC001CEA11AE53E41DC9893AA203899CC85128
:10450C009A8999386CA9942ADB1001CE136811A6EC
:10451C0052C43987874C92B541D114E93201CF107E
:10452C00E5159E50942D078648F34F430201D00E9B
:10453C00650D9650942D47369F860001D121EB11C5
:10454C00B25374608772EA206E93AAE8C09003435A
:10455C000E0C3930E480A24ADB38680001D21568B1
:10456C0011A652C43987874C52C4211C4245D286AD
:10457C000801D31EEB11B25374608772D2102E72E5
:10458C002447722447722447722467623A680001F8
:10459C00D4156911AA52D41DC8E169D2244DD22474
:1045AC004D92B66501D51F0B12B21B749AA44A3AF0
:1045BC003C848B1CC9911CC9911CC9911CC999982C
:1045CC000E1A0001D6188911AA1A745811151D1C3F
:1045DC009221D1244DD2244D92B66501D7224B1293
:1045EC00B20774444772AAA44A3A3C848B1CC99102
:1045FC001CC9911CC9911CC999980E1A0001D81894
:10460C00C911AA36E714A3A2834332249AA4499A67
:10461C00A449D2B60C01D9224B12B25374608772E2
:10462C00AAA44A3A3C848B1CC9911CC9911CC991FF
:10463C001CC999980E1A0001DA1AC911AA52D41D74
:10464C00C829464507876448344993344993A46D77
:10465C001901DB214B12B2D3311DCC89922AE9F01E
:10466C00102E722447722447722447722467623AD0
:10467C00680001DC1BC911AAD2111DCA098AA8E85D
:10468C00E0900C89266992266992B42D0301DD1005
:10469C00E810A619244D073E2A9236440001DE1E6E
:1046AC000A12AE1B7482244A3A494774209113397A
:1046BC004A333113872D9552651B0201DF16881181
:1046CC00A6197450D1141D1D3249D6064553A4CBDE
:1046DC000001E01D0A12AE1B74928EE8441DD181BC
:1046EC00444EE428CDC44C1CB6544A956D0801E1E7
:1046FC00148811A61A7454D6E12193646D50344574
:10470C00BA0C01E222AF0DBE1E74A6E1A026A29A3D
:10471C00A86124152329CE067998D2506A54935453
:10472C001CB4E10001E3182D11BA1C74EA3464D2F4
:10473C00248BD2F090C9DAA60CD1A00001E41B6B3B
:10474C0011B21B946894E44407121DD221711862B3
:10475C00491C926D1CA20401E51567B1A1550645D3
:10476C001B326550E2611A1E4465500001E620EBD5
:10477C0011B25374608772EAA044A324273A90E8DC
:10478C00900E89C3104BAAB48D43940001E719E72E
:10479C00B1A1B1AD394519146DC894418987691817
:1047AC00525119140001E820EB11B2527460877257
:1047BC00DA100D91186AA9142B3930C8CA2A8DDA6F
:1047CC00262E43340801E915E811A650C439876731
:1047DC004F8B64D18650D124651A01EA20CBB1B13C
:1047EC001BC46D52151D187260C8812107861C50A0
:1047FC0054691B071DC9A11C1B0101EB1448B1A571
:10480C001A32491187700815491BE23A300101EC44
:10481C00220BB2B11B74DA206E93AAE8C09003434A
:10482C000E0C3930E480A24ADB38E8480EE5D80893
:10483C0001ED1688B1A51A7470C824451CC2215408
:10484C00246D88EBC00401F00EC6A995318D393664
:10485C00FA8B690201F41FEB11B2D6111DC9C98381
:10486C00128D929CE840A2433A240E432CA9D236D6
:10487C000E510201F519E7B1A115C59CA20C8A369F
:10488C0064CAA0C4C3340CA9A80C0A0001F820EB1C
:10489C0011B2D2311DCC49EBB2464318255B1469D9
:1048AC005126D596281CA2748A95390101F91669EE
:1048BC0011AAD1111DCAE1659B6C92266992A60CB6
:1048CC00C91001FA226A12AED6011DC8A93A10E528
:1048DC00804ED4111D48E4448ED24CCCC4614BA5FF
:1048EC0054D9860001FB16E811A6B5E614354A75B5
:1048FC0078C824591B144D912E0301FC25EF0DBED5
:10490C00C774544773C6E1A026A29AA86124152344
:10491C0029CE067998D2506A5493541CB4E1000104
:10492C00FD1B6D11BA47744CC7728669C8A4491631
:10493C00A5E12193B54D19A2410101FE22EB11B263
:10494C000774444772EA2025DBA42A6A3284D1908A
:10495C006543140E49AAA8D2B644830601FF18A8D1
:10496C00F1A5B5E6C46CC894454A86241A924891C0
:10497C00B4218B0102001DEA11AE915449CD729203
:10498C008EE840222772946662260E5B2AA5CA36F0
:10499C00040201146811A6903449AB834326C9DA8A
:1049AC00A0688A741902021CEA11AE9C1535CB4919
:1049BC003AA203899CC8519A8999386CA9942ADB2C
:1049CC00100203136811A61B15AD0E0E99246B83F0
:1049DC00A229D26502041DE911AA904449CC727037
:1049EC00B8888A9A4815291C4429942A6A220E07E9
:1049FC00010205156811A6903449AB83432629E2C0
:104A0C00F00E68D2A00002061CE911AA5B1531CB8E
:104A1C00C1E1222A6A2255A47010A550AAA889388F
:104A2C001C040207146811A61B15AD0E0E99A48860
:104A3C00C33BA0498302020811E70D9E909CB21C57
:104A4C001A42D53F0E090002090F670996909CB2D5
:104A5C001C5A7D1C1200020A10E5159E59942D1D3E
:104A6C0022CD3F0D0900020B0D650D9659942DDEDC
:104A7C007C1A02020C21EB11B2916449CE72DA203D
:104A8C006E93AAE8C09003430E0C3930E480A24A1E
:104A9C00DB386800020D166811A6903449AB8343CD
:104AAC002629E2100EA122694304020E21EB11B259
:104ABC00DC0145CE72DA206E93AAE8C09003430E57
:104ACC000C3930E480A24ADB386800020F166811FA
:104ADC00A61B15AD0E0E99A4884338848AA40D111B
:104AEC000002101DEB11B2916449CE72C241D43652
:104AFC00511335E3B06AA226DA4465D016000211D0
:104B0C0012680D9E903449AB63CBB448B2EB900164
:104B1C0002121DEB11B2DB0145CE72CA3088DA26C7
:104B2C006AA2661C564DD4449BA80CDA02021310E0
:104B3C0067119EDA1429CB9117ABE3900102141E76
:104B4C00EB11B2916449CE72C2102E7224477224BA
:104B5C0047722447722467623A680002151669117D
:104B6C00AA904449CC72709A344993344993A46DF9
:104B7C001902161EEB11B2DC0145CE72C2102E7258
:104B8C002447722447722447722467623A680002F1
:104B9C0017156911AA5B1531CBC169D2244DD224EA
:104BAC004D92B66502181F2952A91A926453D44427
:104BBC004D86789887F9100EC9A053744007742459
:104BCC00074200021914A6519D19866C088770C8FB
:104BDC00862187446B9801021A1E2A52ADF8246D67
:104BEC006EA18EE8888EE8888EE8C090D374444716
:104BFC007428475200021B140652994A436D904484
:104C0C00A7448A7648B4861900021E1FEB11B253D2
:104C1C0074608772D2900D892AA9922AA9D27052F7
:104C2C00255552255519B221021F1CE911AA50D441
:104C3C001DC8293BA0033AA003CA36D9244DD2245F
:104C4C004D19922102261BCA11AED4119DA8233AEC
:104C5C0090C8891CA5999889C3964AA9B20D0102DE
:104C6C0027124811A6937578C824591B144D912E00
:104C7C000302281BC9B1A978111535912A5238881D
:104C8C00522855D4441C0E620EC51B000229134831
:104C9C00B1A51A32491187774093063547D20902DC
:104CAC002A220B12B21B749AA44A3A6910B74955BE
:104CBC007460C8812107861C18724051A56D1C3484
:104CCC0000022B188811A6197450D1141D1D3249DD
:104CDC001187700815491B2200022C220B12B21BE3
:104CEC0074E292263B6D10B749557460C881210758
:104CFC00861C18724051A56D1C3400022D188811A9
:104D0C00A6197454C9121D1E324911877008154911
:104D1C001B2200022E1FCB11B2D5219D3888DBA49B
:104D2C002A3A30E4C09003430E0C39A0A8D2360EB8
:104D3C001A00022F144811A6937578C824451CC27A
:104D4C002154246D88000230210B12B21B74AA0E60
:104D5C00E9C441DC2655D1812107861C187260C834
:104D6C00014595B671D0000231168811A61A7454FB
:104D7C00D6E12193147108875091B4210202321BA1
:104D8C00AA11AE1A7478C81635D3422D5562250770
:104D9C00744447744407860C02331688AD9D19740D
:104DAC006C48162DD232255452590E95700502506E
:104DBC0011E810A658A649D1944193256D8800029C
:104DCC005410E710A219228BA68E43240D11000259
:104DDC005811E810A61A32491187433C64D22001BD
:104DEC00025910E810A619244D073E2A92364400A9
:104DFC00025F0F6691991A32D1D3A0299E26000228
:104E0C0065186991A9189221D1244DD2244D92B6DE
:104E1C0045077440077460027510E810A61A3249F1
:104E2C0011874745D2860802790BE7109E1B42D5A5
:104E3C00457902871046119A992225129D064D4CF0
:104E4C00230002881AA9B199CA911C9007550774BE
:104E5C004007141DD0011DD001455D00028911E9E8
:104E6C0010AA98264DD294E1A249D2B60C028C100D
:104E7C00E80C9E93D5444CB44CCA944300028D1557
:104E8C00ED0CB2336B6AA22462A2245A66CA2C8738
:104E9C006408028E12480D9E1D1331B62662A2655F
:104EAC0052A61C02029E126891A598164953C42161
:104EBC005324CB243B0F02BB09A2D0925186010292
:104ECC00BC09A2D492B8280002BD09A2D4923844DD
:104EDC00010000001F1C0008FD1B0008811B0008BE
:104EEC001815A01606161119FF1815A01614161170
:104EFC0019FFFE0118FE0115FD161215AE15B3169D
:104F0C009115CA163F15A2160015A1160015A0166C
:104F1C0006161115AB160115B416A216FD15C11601
:104F2C009F15C7160F15B915B116E215D116A21695
:104F3C002015BB161F15B6160815BE160715A61597
:104F4C00A9FE0119FF1815AF19FF1815AE19FF00AE
:104F5C000001140A646432328096980000040A96A8
:104F6C0020081C1C000140004C6F6164696E6720B6
:104F7C002E20004C6F6164696E67202E202E20005D
:104F8C004C6F6164696E67202E202E202E200054F9
:104F9C00656D7065726174757265005072657373BE
:104FAC007572650043757272656E740000000000C6
:104FBC0000000000010203040607080930313233F7
:104FCC003435363738396162636465666768696A97
:104FDC006B6C6D6E6F707172737475767778797A9D
:044FEC0000000000C1
:084FF00008B2FF7F0100000080
:044FF800AD010008FF
:044FFC00890100081F
:10500000010000001000000000000000000000008F
:105010000000000000000000000000000000000090
:10502000000000000000000000000300000000007D
:105030000000000000000000000000000000000070
:1050400000000000000000008601001800000000C1
:105050000000000000000000000000000000000050
:1050600000000000000000C700003C00000000003D
:105070000000000000000000000000000000000030
:105080000000000000806304003E000000000000FB
:105090000000000000000000000000000000000010
:1050A00000000000C0310E001F00000000000000E2
:1050B00000000000000000000000000000000000F0
:1050C000000000E01807800F000000000000000052
:1050D00000000000000000000000000000000000D0
:1050E0000000708C03C007000000000000000000FA
:1050F00000000000000000000000000000000000B0
:105100000038C601E00300000000000000000000BD
:10511000000000000000000000000000000000008F
:105120001CE300F00100000000000000000000008F
:105130000000000000000000000000000000008EE1
:105140007100F800000000000000000000000000F6
:105150000000000000000000000000000000C73850
:10516000007C0000000000000000F00F00F0FF01D4
:1051700000008001C081010003F03F0080639C01BA
:105180003E000000FF0FFCFF01FC3F00F8FF03FFA3
:10519000FF8301C081010003F87F00C031CE011FF1
:1051A0000000C0FF0FFEFF010E70001C0007FFFF94
:1051B0008301E0810100031CE000E018E7800F009C
:1051C00000C0000006000007C0000C0006000380BD
:1051D00001F0810100030EC001408C73C007000084
:1051E000E0000007008001800106000C0003800140
:1051F000F08101000307800300C639E0030000606E
:1052000000000300C001000306000C00038001B889
:105210008101800103000300E31CF0010000600035
:10522000000300C000000306000C00038001988109
:1052300001808101000780710EF80000006000000D
:105240000300C000000606000C000380018C8101F1
:10525000C081010006C038077C0010006000000318
:10526000006000000606000C000380018E8101E052
:1052700080010000609C733E000C01600000030090
:105280006000000606000C0003800186810160803A
:1052900001000030CE391F004801600000030060AB
:1052A00000000606000C0003800183810138C00065
:1052B000000000E79C0F184600600000030060003B
:1052C000000C06000C000380018381011FC0000058
:1052D000008073CE070C6100600000FFFF600000DB
:1052E0000C06000C000380818181FF3FC00000009C
:1052F000C039E703C22800600000FFFF6000000C17
:1053000006000C000380C181817F78C0000000E0AE
:105310009CF309C3080260000003006000000C0653
:10532000000C000380C1808101E0C000000070CE4D
:10533000F98C318A0160000003006000000C060057
:105340000C000380E1808101C0C001000020E77CE7
:10535000C420860060000003006000000606000C08
:1053600000038071808101C0C101000080733E6331
:105370001C61006000000300E000000606000C0055
:105380000380318081018081010006C0399F318412
:1053900021006000000300C000000706000C0003AD
:1053A00080398081018081010006C09CCF1863187C
:1053B000006000000300C000000306000C00038032
:1053C00019808101008301000700CE670C6388000B
:1053D0006000000300C001000306000C0003800D04
:1053E000808101008303000300E733C62846016083
:1053F000000007008003800106000C0003800F807E
:105400008101000307800300F319C3184500600001
:105410000006000007C00106000C00038007808121
:105420000100030EC00100F98C318C3100600000D6
:105430001E00000EF00006000C00038007808101B2
:1054400000031CE000007CC630853000600000F8DE
:10545000FF01FC3F0006000C000380038081010077
:1054600003F87F00003E630C630C00600000F0FF57
:1054700001F00F0006000C0003800380810100038F
:10548000E01F00009F318C610A0000000000000056
:10549000000000000000000000000000000000000C
:1054A000000080CF18E31805000000000000000095
:1054B00000000000000000000000000000000000EC
:1054C00000C0670E530C0300000000000000000045
:1054D00000000000000000000000000000000000CC
:1054E000E023C630C60000000000000000000000FD
:1054F000000000000000000000000000000000F0BC
:1055000001C318C5000000000000000000000000FA
:105510000000000000000000000000000000F80093
:10552000318E31000000000000000000000000008B
:10553000000000000000000000000000007C0030BF
:1055400086310000000000000000000000000000A4
:105550000000000000000000000000003E000863A2
:105560001800000000000000000000000000000023
:1055700000000000000000000000001F008071001B
:10558000000000000000000000000000000000001B
:10559000000000000000000000000F0000000000FC
:1055A00000000000000000000000000000000000FB
:1055B00000000000000000000006000000000000E5
:1055C00000000000000000000000000000000000DB
:0C55D00000000000000000000024F400B7
:040000050800285572
:00000001FF
