:020000040800F2
:1000000000200020591700089114000893140008DC
:1000100000000000000000000000000000000000E0
:10002000000000000000000000000000951400081F
:100030000000000000000000971400089914000858
:10004000A917000800000000A9170008A917000858
:10005000A9170008A9170008A9170008A917000880
:1000600000000000A9170008A9170008A917000838
:10007000A9170008A9170008A91700080000000028
:10008000A1140008A917000800000000C11400080E
:10009000A9170008A9170008A9170008A917000840
:1000A000A9170008A9170008A9170008A917000830
:1000B000A917000800000000000000000000000078
:1000C00010B5064C2378002B07D1054B002B02D02E
:1000D000044800E000BF0123237010BD6800002029
:1000E000000000001C190008044B10B5002B03D0C1
:1000F0000349044800E000BF10BDC04600000000F6
:100100006C0000201C19000802B47146490849001F
:10011000095649008E4402BC7047C04602B471467D
:1001200049084900095C49008E4402BC7047C0463A
:10013000002243088B4274D303098B425FD3030A26
:100140008B4244D3030B8B4228D3030C8B420DD339
:10015000FF22090212BA030C8B4202D312120902C7
:1001600065D0030B8B4219D300E0090AC30B8B4205
:1001700001D3CB03C01A5241830B8B4201D38B03B3
:10018000C01A5241430B8B4201D34B03C01A524158
:10019000030B8B4201D30B03C01A5241C30A8B429B
:1001A00001D3CB02C01A5241830A8B4201D38B0286
:1001B000C01A5241430A8B4201D34B02C01A52412A
:1001C000030A8B4201D30B02C01A5241CDD2C3099C
:1001D0008B4201D3CB01C01A524183098B4201D318
:1001E0008B01C01A524143098B4201D34B01C01A03
:1001F000524103098B4201D30B01C01A5241C3087B
:100200008B4201D3CB00C01A524183088B4201D3E9
:100210008B00C01A524143088B4201D34B00C01AD5
:100220005241411A00D20146524110467047FFE741
:1002300001B5002000F006F802BDC0460029F7D045
:1002400076E770477047C04610B5040000F0E0FB49
:10025000FA218900FFF76CFF00F060F8012000220E
:100260002100404200F020F8002010BD1023064A73
:1002700010B5116800200B431360FFF7E5FF01F094
:10028000EFF8002010BDC04600200240024A13686B
:10029000013313607047C04690000020014B18687E
:1002A0007047C0469000002070B58901002814DA1C
:1002B0000F23C0B20340083B114A9B089B009B18C8
:1002C000032210409040FC321500114085408140CF
:1002D000DC69AC432143D96170BD03258308284004
:1002E000A840FC352E00074A9B009B18C022864080
:1002F0002940814092009C58B44321439950EBE738
:1003000000ED00E000E100E01F2318401E3B8340A9
:10031000014A13607047C04600E100E0094A431EED
:10032000012093420DD8C021074A08485360036A50
:1003300009061B021B0A0B4303620020072390607F
:1003400013607047FFFFFF0010E000E000ED00E0E9
:10035000F0B50B6887B0029300230191029ADA404E
:1003600001D107B0F0BD01229A4003920399029A8D
:100370000A40009200D18CE0019A102152681600C8
:100380008E43022E0ED107251D40AD000139A94034
:10039000DC08A4000419276A8F4301990969A94060
:1003A0000F43276203245F00BC40E4430568013E1D
:1003B0002540AC4603251540BD4061460D43056010
:1003C000012E0FD801998668CD682640BD4035437F
:1003D00085604668039915098E4301210D409D40B3
:1003E00035434560C56801992C408D688021BD402A
:1003F00049052C43C4600A424BD00121264C0326F8
:10040000A5691E400D43A561A4699D080C40059493
:10041000059C0F242149AD00B6006D18B440902111
:10042000AF68C905A743002488420CD01C49013499
:10043000884208D01B490134884204D01A49033449
:10044000884200D1023CB44000993C430E00AC60AD
:10045000164CCD4327683E43D10301D43E002E40C5
:1004600026606768009E3E43910301D43E002E4003
:100470006660A768009E3E43D10201D43E002E4034
:10048000A660E668009F3743920201D42E403700F1
:10049000E760013362E7C0460010024000000140FF
:1004A0000004004800080048000C00480004014017
:1004B000002A01D0816170478162FCE7F0B50368D2
:1004C00085B00500DB072FD42B689B0700D581E0A2
:1004D0002B681B0700D5BCE02B685B0700D5DFE06D
:1004E0002B68DB061AD56A69B54C0423012A00D0B3
:1004F0004BE1616B02260B436363636B1A436263D8
:10050000FFF7CCFE0700636B334200D136E1F821E0
:10051000626BAB698A43DB0013436363296A00297A
:1005200000D059E1002013E00C21A54C62680A407C
:10053000042A06D063680B40082B0BD16368DB03E9
:1005400008D523689B03BFD56B68002BBCD1012065
:1005500005B0F0BD6B68012B13D1802322685B02CC
:1005600013432360FFF79AFE80260700B602236834
:100570003342A9D1FFF792FEC01B6428F7D90320AC
:10058000E6E7002B16D123688E4A802613402360AD
:1005900023688D4AB60213402360FFF77FFE0700F1
:1005A0002368334200D18FE7FFF778FEC01B642831
:1005B000F6D9E4E7052B05D180232268DB0213433B
:1005C0002360CAE723687F4A1340236023687E4A7A
:1005D0001340C6E70C227A4C6368134206D0636866
:1005E0001340082B10D16368DB030DD423689B07ED
:1005F00002D5EB68012BAAD1F82122682B698A4326
:10060000DB001343236063E7EA680123002A0FD06D
:100610002268022613432360FFF740FE0700236889
:100620003342E9D1FFF73AFEC01B0228F7D9A6E70B
:10063000226802269A432260FFF730FE07002368F3
:10064000334200D144E7FFF729FEC01B0228F6D948
:1006500095E7EA6901235A4C002A10D0626A022603
:1006600013436362FFF71AFE0700636A334200D048
:1006700032E7FFF713FEC01B0228F6D97FE7626A54
:1006800002269A436262FFF709FE0700636A33425B
:1006900000D121E7FFF702FEC01B0228F6D96EE762
:1006A00080220021464C5205E3690091134208D193
:1006B000E3691343E361E36913400393039B01235D
:1006C00000938027414E7F0033683B4206D0AB68E1
:1006D000012B13D1226A1343236230E033683B437A
:1006E0003360FFF7DBFD019033683B42EFD1FFF74A
:1006F000D5FD019BC01A6428F6D940E70122002BE2
:1007000014D1236A022793432362236A033293435B
:100710002362FFF7C3FD0600236A3B4225D0FFF7A3
:10072000BDFD2B4B801B9842F6D928E7052B0BD13A
:10073000216A013B0B432362236A1A432262FFF7BB
:10074000ADFD022706000DE0236A934304222362D5
:10075000236A9343C0E7FFF7A1FD1D4B801B98421E
:1007600000D90CE7236A3B42F5D0009B012B00D057
:10077000B6E6E369174A1340E361B1E6FFF78EFD81
:10078000C01B022800D8BEE6F9E6053203D1626B31
:100790009A436263BBE6626B0226134301226363E2
:1007A000636B93436363FFF779FD0700636B334229
:1007B00000D1B3E6FFF772FDC01B0228F6D9DEE6D2
:1007C00000100240FFFFFEFFFFFFFBFF0070004034
:1007D00088130000FFFFFFEF0C22264C0120636806
:1007E0001340082B00D1B3E62368234A134023604B
:1007F00002292FD1FFF752FD80260700B604236897
:10080000334221D10F22E36A9343EA6A1343E3623E
:10081000696AAB6A62680B43184980250A40134332
:100820006360802322685B0413432360FFF736FD77
:100830000600AD0423682B4200D073E6FFF72EFDBF
:10084000801B0228F6D99AE6FFF728FDC01B022874
:10085000D5D994E6FFF722FD80250600AD04236874
:100860002B4200D15EE6FFF719FD801B0228F6D966
:1008700085E6C04600100240FFFFFFFEFFFFC2FFFB
:1008800070B5144C88B010222100684600F0C2FFF9
:10089000210004AD10221031280000F0BBFF0C2213
:1008A0000D4E73681A40082A11D10F206A46990C20
:1008B0000140545CF26A0240A95CDB0305D507489D
:1008C000FFF736FC604308B070BD0548FAE70348FF
:1008D000F9E7C046341900080010024000127A00FF
:1008E00000093D00F7B50122434C060023680F00C4
:1008F00013408B421CD33268930723D4D30729D4E7
:10090000012322681A40974267D333683B4C5B0748
:100910006AD4FFF7B5FF6368394A1B061B0FD35C27
:10092000D840384B18600020FFF78EFC002008E00C
:10093000236893430B432360236813409942DAD022
:100940000120FEBDF0202D494B688343B06803436E
:100950004B60D3E7294D72682B68012A1AD19B039B
:10096000EED503216B688B4313436B60FFF796FC56
:1009700073680190012B15D10C226B681340042B76
:10098000BED0FFF78BFC019BC01A1F4B9842F3D9D6
:100990000320D6E7022A02D19B01E2D4D0E79B07CD
:1009A000DFD4CDE7022B12D00C226B681342A7D004
:1009B000FFF774FC019BC01A134B9842F4D9E7E788
:1009C000FFF76CFC019BC01A0F4B9842E0D80C2239
:1009D0006B681340082BF3D192E722689A43226098
:1009E00022681A42ACD190E76368084A1340F26863
:1009F000134363608DE7C0460020024000100240B0
:100A0000581900080000002088130000FFF8FFFFBD
:100A1000014B18687047C04600000020044B054A8F
:100A20005B685B055B0FD35C034A1068D840704776
:100A3000001002406819000800000020F0B50368AB
:100A400085B00500DB0328D580220021374C5205F4
:100A5000E3690091134208D1E3691343E361E36959
:100A600013400393039B012300938027304E7F00A4
:100A700033683B4226D0C022236A920013402D4E99
:100A800032D1236A1E406B681E43009B2662012BF5
:100A900003D1E369284A1340E3612A68D30706D5E6
:100AA000032022490B6B8343A86803430B63002098
:100AB000930617D510211D4A136B8B43E9680B432E
:100AC00013630FE033683B433360FFF7E7FB0190AC
:100AD00033683B42CFD1FFF7E1FB019BC01A64288A
:100AE000F6D9032005B0F0BD69680A409342C8D02A
:100AF0008023226A206A11005B0203432362236A77
:100B00000E483140034023622162D307B9D5FFF775
:100B1000C5FB07000222236A1342B2D1FFF7BEFBD6
:100B2000074BC01B9842F5D9DBE7C04600100240D6
:100B300000700040FFFCFFFFFFFFFFEFFFFFFEFF25
:100B40008813000070477047704770477047022253
:100B5000036810B51969040011420ED0D96811421A
:100B60000BD0053A1A619B69043202779B0700D1CA
:100B700079E0FFF7E9FF002323770422236819694E
:100B8000114210D0D96811420DD0093A1A610732CA
:100B900022779A69C0239B0020001A4269D0FFF790
:100BA000D3FF0023237708222368196911420ED04E
:100BB000D96811420BD0113A1A61DB690D322277E4
:100BC00020009B075BD0FFF7BFFF00232377102295
:100BD00023681969114210D0D96811420DD0213A09
:100BE0001A6119322277DA69C0239B0020001A4269
:100BF0004BD0FFF7A9FF002323770122236819694F
:100C0000114207D0D968114204D0033A1A6120007A
:100C1000FFF798FF802223681969114208D0D9682C
:100C2000114205D0023AFF3A1A61200000F038F96B
:100C3000402223681969114207D0D968114204D0B3
:100C4000813A1A612000FFF781FF20222368196989
:100C5000114207D0D968114204D0413A1A612000EC
:100C600000F01DF910BDFFF76EFF2000FFF76DFFCC
:100C700081E7FFF768FF2000FFF767FF91E7FFF7C5
:100C800062FF2000FFF761FF9FE7FFF75CFF200096
:100C9000FFF75BFFAFE700001C4A10B50368904206
:100CA00002D01B4CA04208D17024A3434C682343BC
:100CB00090420ED0164CA0420BD0164CA04208D049
:100CC000154CA04205D0154CA04202D0144CA042B5
:100CD00003D1144C2340CC6823438024A3434C69A4
:100CE000234303608B68C3620B688362904208D021
:100CF000094B984205D0094B984202D0084B9842C4
:100D000001D10B6903630123436110BD002C014035
:100D10000004004000200040004001400044014029
:100D200000480140FFFCFFFF70B504000120002CCB
:100D300014D025003D352B78DBB2002B05D12200E5
:100D40003C321370200000F085FC022320682B70D9
:100D5000211DFFF7A1FF012300202B7070BD0000B3
:100D600030B58468034D0A431B022C4013432343D0
:100D7000836030BDFF00FFFF702270B5072400685C
:100D8000836893434A681343A3430C6823438360F7
:100D9000502A1CD002D8402A0AD070BD602A28D020
:100DA000702AFAD10B698A68C968FFF7D9FFF4E79E
:100DB0000122046A036A934303628369EF32934317
:100DC0001A000B691B01134383610462E5E70125E7
:100DD0008A680B69016A046A1B01AC430462846976
:100DE000EF35AC4323430A24A1430A4383610262E3
:100DF000D3E710248B680A69016A074DA143016299
:100E0000846912032C402243A024016A1B01A143E0
:100E10000B4382610362C0E7FF0FFFFFF8B50500D7
:100E20003C352B7804000220012B13D0260001272B
:100E30003D362F7030702000FFF79EFF40210020CC
:100E40002368DA688A43DA60DA6803490A40DA60BC
:100E500037702870F8BDC046FFBFFFFF30B50400F3
:100E60003C34227803000220012A17D01D001B68A1
:100E70003D3528705A686E3082435A605A68086857
:100E80004968024380205A609A6882439A609A684F
:100E900000200A439A6001232B70207030BD7047F8
:100EA0007047000070B504000568C2698368006976
:100EB0002968034360693F4E03433F4813430140A1
:100EC0000B432B606B683D49206A0B40E1680B4384
:100ED0006B60A369A9680343394801400B43AB60C9
:100EE00080231B02B54210D103203649096B014013
:100EF0003548405C9A4213D0082858D8FFF70EF9BD
:100F0000375742574B575757500030498D424CD1B5
:100F10009A422CD1FFF782FD636840005B080BE02A
:100F2000082821D8FFF7F0F8F62005201820202007
:100F30001B0063685808264BC0186168FFF7F8F873
:100F400083B200200F22190091430A001B07216879
:100F50005B0F1343CB6070BDFFF792FCDCE7636867
:100F6000580880235B02E7E701200023EAE7FFF748
:100F700055FD61684B081818FFF7DAF880B2E86091
:100F80000020E8E76168134B4808C018FFF7D0F865
:100F900080B2F060F4E7FFF773FC61684B08F4E798
:100FA000802361681B024808EFE79A42DCD00120E9
:100FB000D1E7C04600380140F369FFFFFFCFFFFFD4
:100FC000FFF4FFFF001002405419000800440040E5
:100FD0000024F40000127A00436A30B5DA0706D51F
:100FE0000168284C4A682240846A22434A609A0772
:100FF00006D50168244C4A682240C46A22434A60EC
:101000005A0706D50168214C4A682240046B2243E6
:101010004A601A0706D501681D4C4A682240446B95
:1010200022434A60DA0606D501681A4C8A682240D3
:10103000846B22438A609A0606D50168164C8A683A
:101040002240C46B22438A605A0610D50168134DB2
:101050004A68046C2A4022434A6080225203944228
:1010600005D14A680E4C2240446C22434A601B065C
:1010700006D502680B4953680B40816C0B435360E3
:1010800030BDC046FFFFFDFFFFFFFEFFFFFFFBFF80
:10109000FF7FFFFFFFEFFFFFFFDFFFFFFFFFEFFF20
:1010A000FFFF9FFFFFFFF7FF70B5041E01D1012076
:1010B00070BD050069352B78DBB2002B04D102002E
:1010C0006832137000F014FB2423012122682B7076
:1010D000136820008B431360FFF7E4FE0128E6D07D
:1010E000636A002B02D02000FFF776FF23680B49CC
:1010F0005A6800200A4008215A609A688A439A6018
:10110000012219680A431A6022002023E0666A322D
:1011100068342B7013702070CAE7C046FFF7FFFFDA
:10112000F8B504000E0015001F002268D369334093
:101130009B1B59424B41AB4201D0002018E0069B5B
:101140000133F3D0069B002B13D123680C491A6896
:1011500003200A401A609A68A331FF318A439A60DB
:1011600022002023693213705370002368342370E7
:10117000F8BDFFF793F8069BC01B8342D5D2E4E786
:101180005FFEFFFFF0B5070085B0039369373B783A
:1011900004000D0016000220202B46D10138002942
:1011A00043D0002A41D08023A2685B019A4204D137
:1011B0002369002B01D1014237D1230068331A780B
:1011C0000220012A31D001221A700023E366213364
:1011D0003B70FFF763F8230050331E805E8080264B
:1011E00002907601210052310A8892B2002A0DD174
:1011F000039B402100932000029BFFF791FF0028F2
:1012000012D1202368343B7020700EE00B8800223E
:10121000013B9BB20B80039B802100932000029B2B
:10122000FFF77EFF002802D0032005B0F0BDA368C1
:101230002268B34208D12369002B05D12B880235DF
:10124000DB05DB0D1385CDE72B7801351385C9E769
:10125000F0B589B01422002103A800F0E4FA802040
:10126000174B80025969C0270143596180215A698F
:10127000090302400192019A5A69124D0A435A61C8
:101280005B69BF000B400022029339002800029BDB
:10129000FFF70EF99020002401260B4B03A9C0058F
:1012A000049303960594FFF753F803A928000397C6
:1012B000049605940694FFF74BF809B0F0BDC046BC
:1012C00000100240000800480000121070B51026FF
:1012D00094B03022002108A800F0A5FA32000021C5
:1012E000684600F0A0FA3200002104A800F09BFA42
:1012F000A023022401259B0308A8089410941293AC
:101300000B950C96FFF7DAF80723019400242900C7
:101310006846009302940394FFF7E4FA04A8049546
:101320000694FFF78BFB14B070BD10B50400C180AC
:10133000080000F065FA0023E06063802380A3804A
:1013400010BD4388C268D1548288C18843888A42CC
:1013500008D2013282800022994201D901339AB227
:10136000428070475A1C0280F5E7000070B5FEF716
:101370007DFFFFF7ABFFFFF76BFF00F051F900F0C7
:101380009BF900F011F90123234A244CD168200075
:101390001943D160116819431160214AD16819437A
:1013A000D16011680B43802113608900FFF7BDFFF6
:1013B0000025E388AB42FBD928000A38212829D828
:1013C000FEF7ACFE1A1C26111824242028282828F1
:1013D00028282828282828282828282828281A1CA7
:1013E000261E20222426482120000135FFF7A9FFD0
:1013F000ADB2DEE74521F7E75021F5E75321F3E7EA
:101400005721F1E74F21EFE75221EDE74C21EBE7C0
:101410004421E9E76821E7E7000400409400002048
:101420000020004010B50388C1888B4201D1002004
:101430000DE0C268D45C502C0AD1D2185478532CD9
:1014400006D19278442A03D103330381012010BDD1
:101450008B4202D201339BB2E7E70023E5E77047F6
:1014600001200A4B82B099690143996180219A69F0
:10147000490502400092009ADA690A43DA61DB69A1
:101480000B400193019B02B07047C0460010024020
:101490007047FEE77047704710B5FEF7F7FE10BDC6
:1014A0008023054A10B551699B004B4053610348A6
:1014B000FFF74DFB10BDC04600080048A400002007
:1014C00080230F4A10B551695B000E4C4B405361AD
:1014D0002000FFF7A7FF00280ED0E368218905222E
:1014E00059180948094BFFF74DFEA3882188228926
:1014F0005B189B1AA38022800548FFF728FB10BDCC
:10150000000800489400002024010020FFFF000094
:10151000E40000200A4B10B519680200002901D12F
:10152000084919606946186882188A4206D900F08D
:101530003DF90C2303600120404210BD1A60FCE716
:1015400084000020980100200121114B11481A68E5
:101550000A431A605A6802405A601A680E480240EC
:101560001A601A680D4802401A605A680C48024016
:101570000F205A60DA6A8243DA621A6B0948024025
:101580001A635A6B8A435A6300229A607047C046B6
:10159000001002400CB8FF08FFFFF6FEFFFFFBFF44
:1015A000FFFFC0FFECFEFFFF30B589B01422002121
:1015B00003A800F038F90822002101A800F033F94F
:1015C000144C154B64222360144B200063600023ED
:1015D000E260A3602361A361FFF7A6FB002801D0AE
:1015E000FFF73DFF0025062303A920000393049580
:1015F000FFF714FCA84201D0FFF731FF01A920003A
:1016000001950295FFF72AFC002801D0FFF727FF7C
:1016100009B030BDA40000200004004080BB0000E1
:1016200009480A4B10B50360094BFA2243600023B6
:10163000D2008360C26003618361FFF775FB0028FD
:1016400001D0FFF70CFF10BDE40000200020004097
:1016500080BB000007B50368144A934211D10220F1
:10166000134AD1690143D161D36900220340009339
:101670000E301100009BFEF717FE1020FEF744FE0F
:1016800007BD0C4A9342FBD18020094A4000D16932
:101690000143D161D369002203400193ED38110069
:1016A000019BFEF701FE1320E8E7C046000400405E
:1016B00000100240002000400B480C4B10B50360A6
:1016C00096239B0143600C22002342618360C36028
:1016D00003618361C36103624362FFF7E5FC002895
:1016E00001D0FFF7BCFE10BD2401002000380140EE
:1016F00010B5040088B01422002103A800F093F86C
:10170000134B22689A4220D18020124BC001996964
:101710000143996180219A69890202400192019AEC
:101720005A6990200A435A615B69C0050B400293D5
:10173000029BC023DB00039302230493013306932F
:1017400003A9023B0793FEF703FE08B010BDC04695
:1017500000380140001002400D4885460D480E49F2
:101760000E4A002302E0D458C4500433C4188C42FB
:10177000F9D30B4A0B4C002301E013600432A24260
:10178000FBD3FFF7E1FE00F017F8FFF7EFFDFEE7F0
:1017900000200020000000206800002078190008C8
:1017A0006800002098010020FEE70000014B186847
:1017B0007047C0460400002070B500260C4D0D4C4B
:1017C000641BA410A64209D1002600F0A7F80A4D18
:1017D0000A4C641BA410A64205D170BDB300EB589F
:1017E00098470136EEE7B300EB5898470136F2E729
:1017F00070190008701900087019000874190008A1
:1018000010B5034B0100186800F016F810BDC04673
:1018100004000020002310B59A4200D110BDCC5C1A
:10182000C4540133F8E703008218934200D1704793
:1018300019700133F9E70000032370B5CD1C9D43F7
:10184000083506000C2D1ED20C25A9421DD83000EB
:1018500000F062F8254A14682100002919D1244CAF
:101860002368002B03D1300000F044F820602900E9
:10187000300000F03FF8431C2CD10C2330003360C3
:1018800000F04BF803E0002DDFDA0C23336000207A
:1018900070BD0B685B1B1AD40B2B03D90B60CC18E3
:1018A000256003E08C420ED163681360300000F0C5
:1018B00034F8200007220B30231D9043C31AE7D0D1
:1018C0005A42E250E4E74B6863600C00EEE70C001C
:1018D0004968C2E70323C41C9C43A042E0D0211AFC
:1018E000300000F007F8431CDAD1C6E7880000207A
:1018F0008C000020002370B5064C05000800236012
:10190000FFF708FE431C03D12368002B00D02B6097
:1019100070BDC0469401002070477047F8B5C046BE
:10192000F8BC08BC9E467047F8B5C046F8BC08BC79
:041930009E46704718
:1019340002030405060708090A0B0C0D0E0F10100C
:101944000102030405060708090A0B0C0D0E0F100B
:10195400000408020000000000000000010203046B
:0C1964000607080900000000010203044F
:04197000E900000882
:04197400C1000008A6
:1019780000127A00080000200000000000000000AB
:10198800000000000000000000000000000000004F
:10199800000000000000000000000000000000003F
:1019A800000000000000000000000000000000002F
:1019B800000000000000000000000000000000001F
:1019C800000000000000000000000000000000000F
:0819D800000000000000000007
:04000005080017597F
:00000001FF
